{
  "_format": "hh-sol-artifact-1",
  "contractName": "NFTLendAuction",
  "sourceName": "contracts/NFTLendAuction.sol",
  "abi": [
    {
      "inputs": [],
      "stateMutability": "nonpayable",
      "type": "constructor"
    },
    {
      "inputs": [],
      "name": "AccessControlBadConfirmation",
      "type": "error"
    },
    {
      "inputs": [
        {
          "internalType": "address",
          "name": "account",
          "type": "address"
        },
        {
          "internalType": "bytes32",
          "name": "neededRole",
          "type": "bytes32"
        }
      ],
      "name": "AccessControlUnauthorizedAccount",
      "type": "error"
    },
    {
      "inputs": [],
      "name": "ReentrancyGuardReentrantCall",
      "type": "error"
    },
    {
      "anonymous": false,
      "inputs": [
        {
          "indexed": false,
          "internalType": "address",
          "name": "nftAddress",
          "type": "address"
        },
        {
          "indexed": false,
          "internalType": "bool",
          "name": "allowed",
          "type": "bool"
        }
      ],
      "name": "AllowedNFTUpdated",
      "type": "event"
    },
    {
      "anonymous": false,
      "inputs": [
        {
          "indexed": false,
          "internalType": "uint256",
          "name": "loanId",
          "type": "uint256"
        },
        {
          "components": [
            {
              "internalType": "address",
              "name": "borrower",
              "type": "address"
            },
            {
              "internalType": "address",
              "name": "lender",
              "type": "address"
            },
            {
              "internalType": "address",
              "name": "nftAddress",
              "type": "address"
            },
            {
              "internalType": "uint256",
              "name": "tokenId",
              "type": "uint256"
            },
            {
              "internalType": "uint256",
              "name": "loanAmount",
              "type": "uint256"
            },
            {
              "internalType": "uint256",
              "name": "maxInterestRate",
              "type": "uint256"
            },
            {
              "internalType": "uint256",
              "name": "currentInterestRate",
              "type": "uint256"
            },
            {
              "internalType": "uint256",
              "name": "duration",
              "type": "uint256"
            },
            {
              "internalType": "uint256",
              "name": "startTime",
              "type": "uint256"
            },
            {
              "internalType": "bool",
              "name": "isAccepted",
              "type": "bool"
            }
          ],
          "indexed": false,
          "internalType": "struct NFTLendAuction.Loan",
          "name": "loan",
          "type": "tuple"
        }
      ],
      "name": "LoanAccepted",
      "type": "event"
    },
    {
      "anonymous": false,
      "inputs": [
        {
          "indexed": false,
          "internalType": "uint256",
          "name": "loanId",
          "type": "uint256"
        },
        {
          "components": [
            {
              "internalType": "address",
              "name": "borrower",
              "type": "address"
            },
            {
              "internalType": "address",
              "name": "lender",
              "type": "address"
            },
            {
              "internalType": "address",
              "name": "nftAddress",
              "type": "address"
            },
            {
              "internalType": "uint256",
              "name": "tokenId",
              "type": "uint256"
            },
            {
              "internalType": "uint256",
              "name": "loanAmount",
              "type": "uint256"
            },
            {
              "internalType": "uint256",
              "name": "maxInterestRate",
              "type": "uint256"
            },
            {
              "internalType": "uint256",
              "name": "currentInterestRate",
              "type": "uint256"
            },
            {
              "internalType": "uint256",
              "name": "duration",
              "type": "uint256"
            },
            {
              "internalType": "uint256",
              "name": "startTime",
              "type": "uint256"
            },
            {
              "internalType": "bool",
              "name": "isAccepted",
              "type": "bool"
            }
          ],
          "indexed": false,
          "internalType": "struct NFTLendAuction.Loan",
          "name": "loan",
          "type": "tuple"
        }
      ],
      "name": "LoanBidCancelled",
      "type": "event"
    },
    {
      "anonymous": false,
      "inputs": [
        {
          "indexed": false,
          "internalType": "uint256",
          "name": "loanId",
          "type": "uint256"
        },
        {
          "components": [
            {
              "internalType": "address",
              "name": "borrower",
              "type": "address"
            },
            {
              "internalType": "address",
              "name": "lender",
              "type": "address"
            },
            {
              "internalType": "address",
              "name": "nftAddress",
              "type": "address"
            },
            {
              "internalType": "uint256",
              "name": "tokenId",
              "type": "uint256"
            },
            {
              "internalType": "uint256",
              "name": "loanAmount",
              "type": "uint256"
            },
            {
              "internalType": "uint256",
              "name": "maxInterestRate",
              "type": "uint256"
            },
            {
              "internalType": "uint256",
              "name": "currentInterestRate",
              "type": "uint256"
            },
            {
              "internalType": "uint256",
              "name": "duration",
              "type": "uint256"
            },
            {
              "internalType": "uint256",
              "name": "startTime",
              "type": "uint256"
            },
            {
              "internalType": "bool",
              "name": "isAccepted",
              "type": "bool"
            }
          ],
          "indexed": false,
          "internalType": "struct NFTLendAuction.Loan",
          "name": "loan",
          "type": "tuple"
        }
      ],
      "name": "LoanBidPlaced",
      "type": "event"
    },
    {
      "anonymous": false,
      "inputs": [
        {
          "indexed": false,
          "internalType": "uint256",
          "name": "loanId",
          "type": "uint256"
        },
        {
          "components": [
            {
              "internalType": "address",
              "name": "borrower",
              "type": "address"
            },
            {
              "internalType": "address",
              "name": "lender",
              "type": "address"
            },
            {
              "internalType": "address",
              "name": "nftAddress",
              "type": "address"
            },
            {
              "internalType": "uint256",
              "name": "tokenId",
              "type": "uint256"
            },
            {
              "internalType": "uint256",
              "name": "loanAmount",
              "type": "uint256"
            },
            {
              "internalType": "uint256",
              "name": "maxInterestRate",
              "type": "uint256"
            },
            {
              "internalType": "uint256",
              "name": "currentInterestRate",
              "type": "uint256"
            },
            {
              "internalType": "uint256",
              "name": "duration",
              "type": "uint256"
            },
            {
              "internalType": "uint256",
              "name": "startTime",
              "type": "uint256"
            },
            {
              "internalType": "bool",
              "name": "isAccepted",
              "type": "bool"
            }
          ],
          "indexed": false,
          "internalType": "struct NFTLendAuction.Loan",
          "name": "loan",
          "type": "tuple"
        }
      ],
      "name": "LoanDefaulted",
      "type": "event"
    },
    {
      "anonymous": false,
      "inputs": [
        {
          "indexed": false,
          "internalType": "uint256",
          "name": "loanId",
          "type": "uint256"
        },
        {
          "components": [
            {
              "internalType": "address",
              "name": "borrower",
              "type": "address"
            },
            {
              "internalType": "address",
              "name": "lender",
              "type": "address"
            },
            {
              "internalType": "address",
              "name": "nftAddress",
              "type": "address"
            },
            {
              "internalType": "uint256",
              "name": "tokenId",
              "type": "uint256"
            },
            {
              "internalType": "uint256",
              "name": "loanAmount",
              "type": "uint256"
            },
            {
              "internalType": "uint256",
              "name": "maxInterestRate",
              "type": "uint256"
            },
            {
              "internalType": "uint256",
              "name": "currentInterestRate",
              "type": "uint256"
            },
            {
              "internalType": "uint256",
              "name": "duration",
              "type": "uint256"
            },
            {
              "internalType": "uint256",
              "name": "startTime",
              "type": "uint256"
            },
            {
              "internalType": "bool",
              "name": "isAccepted",
              "type": "bool"
            }
          ],
          "indexed": false,
          "internalType": "struct NFTLendAuction.Loan",
          "name": "loan",
          "type": "tuple"
        }
      ],
      "name": "LoanDelisted",
      "type": "event"
    },
    {
      "anonymous": false,
      "inputs": [
        {
          "indexed": false,
          "internalType": "uint256",
          "name": "loanId",
          "type": "uint256"
        },
        {
          "components": [
            {
              "internalType": "address",
              "name": "borrower",
              "type": "address"
            },
            {
              "internalType": "address",
              "name": "lender",
              "type": "address"
            },
            {
              "internalType": "address",
              "name": "nftAddress",
              "type": "address"
            },
            {
              "internalType": "uint256",
              "name": "tokenId",
              "type": "uint256"
            },
            {
              "internalType": "uint256",
              "name": "loanAmount",
              "type": "uint256"
            },
            {
              "internalType": "uint256",
              "name": "maxInterestRate",
              "type": "uint256"
            },
            {
              "internalType": "uint256",
              "name": "currentInterestRate",
              "type": "uint256"
            },
            {
              "internalType": "uint256",
              "name": "duration",
              "type": "uint256"
            },
            {
              "internalType": "uint256",
              "name": "startTime",
              "type": "uint256"
            },
            {
              "internalType": "bool",
              "name": "isAccepted",
              "type": "bool"
            }
          ],
          "indexed": false,
          "internalType": "struct NFTLendAuction.Loan",
          "name": "loan",
          "type": "tuple"
        }
      ],
      "name": "LoanListed",
      "type": "event"
    },
    {
      "anonymous": false,
      "inputs": [
        {
          "indexed": false,
          "internalType": "uint256",
          "name": "loanId",
          "type": "uint256"
        },
        {
          "components": [
            {
              "internalType": "address",
              "name": "borrower",
              "type": "address"
            },
            {
              "internalType": "address",
              "name": "lender",
              "type": "address"
            },
            {
              "internalType": "address",
              "name": "nftAddress",
              "type": "address"
            },
            {
              "internalType": "uint256",
              "name": "tokenId",
              "type": "uint256"
            },
            {
              "internalType": "uint256",
              "name": "loanAmount",
              "type": "uint256"
            },
            {
              "internalType": "uint256",
              "name": "maxInterestRate",
              "type": "uint256"
            },
            {
              "internalType": "uint256",
              "name": "currentInterestRate",
              "type": "uint256"
            },
            {
              "internalType": "uint256",
              "name": "duration",
              "type": "uint256"
            },
            {
              "internalType": "uint256",
              "name": "startTime",
              "type": "uint256"
            },
            {
              "internalType": "bool",
              "name": "isAccepted",
              "type": "bool"
            }
          ],
          "indexed": false,
          "internalType": "struct NFTLendAuction.Loan",
          "name": "loan",
          "type": "tuple"
        }
      ],
      "name": "LoanRepaid",
      "type": "event"
    },
    {
      "anonymous": false,
      "inputs": [
        {
          "indexed": false,
          "internalType": "uint256",
          "name": "newFeeRate",
          "type": "uint256"
        }
      ],
      "name": "ProtocolFeeRateUpdated",
      "type": "event"
    },
    {
      "anonymous": false,
      "inputs": [
        {
          "indexed": false,
          "internalType": "address",
          "name": "to",
          "type": "address"
        },
        {
          "indexed": false,
          "internalType": "uint256",
          "name": "amount",
          "type": "uint256"
        }
      ],
      "name": "ProtocolFeesWithdrawn",
      "type": "event"
    },
    {
      "anonymous": false,
      "inputs": [
        {
          "indexed": true,
          "internalType": "bytes32",
          "name": "role",
          "type": "bytes32"
        },
        {
          "indexed": true,
          "internalType": "bytes32",
          "name": "previousAdminRole",
          "type": "bytes32"
        },
        {
          "indexed": true,
          "internalType": "bytes32",
          "name": "newAdminRole",
          "type": "bytes32"
        }
      ],
      "name": "RoleAdminChanged",
      "type": "event"
    },
    {
      "anonymous": false,
      "inputs": [
        {
          "indexed": true,
          "internalType": "bytes32",
          "name": "role",
          "type": "bytes32"
        },
        {
          "indexed": true,
          "internalType": "address",
          "name": "account",
          "type": "address"
        },
        {
          "indexed": true,
          "internalType": "address",
          "name": "sender",
          "type": "address"
        }
      ],
      "name": "RoleGranted",
      "type": "event"
    },
    {
      "anonymous": false,
      "inputs": [
        {
          "indexed": true,
          "internalType": "bytes32",
          "name": "role",
          "type": "bytes32"
        },
        {
          "indexed": true,
          "internalType": "address",
          "name": "account",
          "type": "address"
        },
        {
          "indexed": true,
          "internalType": "address",
          "name": "sender",
          "type": "address"
        }
      ],
      "name": "RoleRevoked",
      "type": "event"
    },
    {
      "inputs": [],
      "name": "DEFAULT_ADMIN_ROLE",
      "outputs": [
        {
          "internalType": "bytes32",
          "name": "",
          "type": "bytes32"
        }
      ],
      "stateMutability": "view",
      "type": "function"
    },
    {
      "inputs": [],
      "name": "MANAGER_ROLE",
      "outputs": [
        {
          "internalType": "bytes32",
          "name": "",
          "type": "bytes32"
        }
      ],
      "stateMutability": "view",
      "type": "function"
    },
    {
      "inputs": [],
      "name": "OWNER_ROLE",
      "outputs": [
        {
          "internalType": "bytes32",
          "name": "",
          "type": "bytes32"
        }
      ],
      "stateMutability": "view",
      "type": "function"
    },
    {
      "inputs": [
        {
          "internalType": "uint256",
          "name": "loanId",
          "type": "uint256"
        }
      ],
      "name": "acceptLoan",
      "outputs": [],
      "stateMutability": "nonpayable",
      "type": "function"
    },
    {
      "inputs": [
        {
          "internalType": "uint256",
          "name": "",
          "type": "uint256"
        }
      ],
      "name": "activeLoanIds",
      "outputs": [
        {
          "internalType": "uint256",
          "name": "",
          "type": "uint256"
        }
      ],
      "stateMutability": "view",
      "type": "function"
    },
    {
      "inputs": [
        {
          "internalType": "uint256",
          "name": "",
          "type": "uint256"
        }
      ],
      "name": "activeLoans",
      "outputs": [
        {
          "internalType": "bool",
          "name": "",
          "type": "bool"
        }
      ],
      "stateMutability": "view",
      "type": "function"
    },
    {
      "inputs": [
        {
          "internalType": "address",
          "name": "",
          "type": "address"
        }
      ],
      "name": "allowedNFTs",
      "outputs": [
        {
          "internalType": "bool",
          "name": "",
          "type": "bool"
        }
      ],
      "stateMutability": "view",
      "type": "function"
    },
    {
      "inputs": [
        {
          "internalType": "uint256",
          "name": "loanId",
          "type": "uint256"
        }
      ],
      "name": "cancelBid",
      "outputs": [],
      "stateMutability": "nonpayable",
      "type": "function"
    },
    {
      "inputs": [
        {
          "internalType": "uint256",
          "name": "loanId",
          "type": "uint256"
        }
      ],
      "name": "claimDefaultedLoan",
      "outputs": [],
      "stateMutability": "payable",
      "type": "function"
    },
    {
      "inputs": [
        {
          "internalType": "uint256",
          "name": "loanId",
          "type": "uint256"
        }
      ],
      "name": "delistLoan",
      "outputs": [],
      "stateMutability": "nonpayable",
      "type": "function"
    },
    {
      "inputs": [
        {
          "internalType": "uint256",
          "name": "",
          "type": "uint256"
        }
      ],
      "name": "escrowedFunds",
      "outputs": [
        {
          "internalType": "uint256",
          "name": "",
          "type": "uint256"
        }
      ],
      "stateMutability": "view",
      "type": "function"
    },
    {
      "inputs": [],
      "name": "getActiveLoans",
      "outputs": [
        {
          "internalType": "uint256[]",
          "name": "",
          "type": "uint256[]"
        }
      ],
      "stateMutability": "view",
      "type": "function"
    },
    {
      "inputs": [
        {
          "internalType": "uint256",
          "name": "loanId",
          "type": "uint256"
        }
      ],
      "name": "getRequiredRepayment",
      "outputs": [
        {
          "internalType": "uint256",
          "name": "",
          "type": "uint256"
        }
      ],
      "stateMutability": "view",
      "type": "function"
    },
    {
      "inputs": [
        {
          "internalType": "bytes32",
          "name": "role",
          "type": "bytes32"
        }
      ],
      "name": "getRoleAdmin",
      "outputs": [
        {
          "internalType": "bytes32",
          "name": "",
          "type": "bytes32"
        }
      ],
      "stateMutability": "view",
      "type": "function"
    },
    {
      "inputs": [
        {
          "internalType": "address",
          "name": "account",
          "type": "address"
        }
      ],
      "name": "grantManagerRole",
      "outputs": [],
      "stateMutability": "nonpayable",
      "type": "function"
    },
    {
      "inputs": [
        {
          "internalType": "bytes32",
          "name": "role",
          "type": "bytes32"
        },
        {
          "internalType": "address",
          "name": "account",
          "type": "address"
        }
      ],
      "name": "grantRole",
      "outputs": [],
      "stateMutability": "nonpayable",
      "type": "function"
    },
    {
      "inputs": [
        {
          "internalType": "bytes32",
          "name": "role",
          "type": "bytes32"
        },
        {
          "internalType": "address",
          "name": "account",
          "type": "address"
        }
      ],
      "name": "hasRole",
      "outputs": [
        {
          "internalType": "bool",
          "name": "",
          "type": "bool"
        }
      ],
      "stateMutability": "view",
      "type": "function"
    },
    {
      "inputs": [
        {
          "internalType": "address",
          "name": "nftAddress",
          "type": "address"
        },
        {
          "internalType": "uint256",
          "name": "tokenId",
          "type": "uint256"
        },
        {
          "internalType": "uint256",
          "name": "loanAmount",
          "type": "uint256"
        },
        {
          "internalType": "uint256",
          "name": "maxInterestRate",
          "type": "uint256"
        },
        {
          "internalType": "uint256",
          "name": "duration",
          "type": "uint256"
        }
      ],
      "name": "listLoan",
      "outputs": [],
      "stateMutability": "nonpayable",
      "type": "function"
    },
    {
      "inputs": [],
      "name": "loanCounter",
      "outputs": [
        {
          "internalType": "uint256",
          "name": "",
          "type": "uint256"
        }
      ],
      "stateMutability": "view",
      "type": "function"
    },
    {
      "inputs": [
        {
          "internalType": "uint256",
          "name": "",
          "type": "uint256"
        }
      ],
      "name": "loans",
      "outputs": [
        {
          "internalType": "address",
          "name": "borrower",
          "type": "address"
        },
        {
          "internalType": "address",
          "name": "lender",
          "type": "address"
        },
        {
          "internalType": "address",
          "name": "nftAddress",
          "type": "address"
        },
        {
          "internalType": "uint256",
          "name": "tokenId",
          "type": "uint256"
        },
        {
          "internalType": "uint256",
          "name": "loanAmount",
          "type": "uint256"
        },
        {
          "internalType": "uint256",
          "name": "maxInterestRate",
          "type": "uint256"
        },
        {
          "internalType": "uint256",
          "name": "currentInterestRate",
          "type": "uint256"
        },
        {
          "internalType": "uint256",
          "name": "duration",
          "type": "uint256"
        },
        {
          "internalType": "uint256",
          "name": "startTime",
          "type": "uint256"
        },
        {
          "internalType": "bool",
          "name": "isAccepted",
          "type": "bool"
        }
      ],
      "stateMutability": "view",
      "type": "function"
    },
    {
      "inputs": [],
      "name": "maxActiveLoans",
      "outputs": [
        {
          "internalType": "uint256",
          "name": "",
          "type": "uint256"
        }
      ],
      "stateMutability": "view",
      "type": "function"
    },
    {
      "inputs": [
        {
          "internalType": "uint256",
          "name": "loanId",
          "type": "uint256"
        },
        {
          "internalType": "uint256",
          "name": "interestRate",
          "type": "uint256"
        }
      ],
      "name": "placeBid",
      "outputs": [],
      "stateMutability": "payable",
      "type": "function"
    },
    {
      "inputs": [],
      "name": "protocolFeeBalance",
      "outputs": [
        {
          "internalType": "uint256",
          "name": "",
          "type": "uint256"
        }
      ],
      "stateMutability": "view",
      "type": "function"
    },
    {
      "inputs": [],
      "name": "protocolFeeRate",
      "outputs": [
        {
          "internalType": "uint256",
          "name": "",
          "type": "uint256"
        }
      ],
      "stateMutability": "view",
      "type": "function"
    },
    {
      "inputs": [
        {
          "internalType": "bytes32",
          "name": "role",
          "type": "bytes32"
        },
        {
          "internalType": "address",
          "name": "callerConfirmation",
          "type": "address"
        }
      ],
      "name": "renounceRole",
      "outputs": [],
      "stateMutability": "nonpayable",
      "type": "function"
    },
    {
      "inputs": [
        {
          "internalType": "uint256",
          "name": "loanId",
          "type": "uint256"
        }
      ],
      "name": "repayLoan",
      "outputs": [],
      "stateMutability": "payable",
      "type": "function"
    },
    {
      "inputs": [
        {
          "internalType": "address",
          "name": "account",
          "type": "address"
        }
      ],
      "name": "revokeManagerRole",
      "outputs": [],
      "stateMutability": "nonpayable",
      "type": "function"
    },
    {
      "inputs": [
        {
          "internalType": "bytes32",
          "name": "role",
          "type": "bytes32"
        },
        {
          "internalType": "address",
          "name": "account",
          "type": "address"
        }
      ],
      "name": "revokeRole",
      "outputs": [],
      "stateMutability": "nonpayable",
      "type": "function"
    },
    {
      "inputs": [
        {
          "internalType": "uint256",
          "name": "newMax",
          "type": "uint256"
        }
      ],
      "name": "setMaxActiveLoans",
      "outputs": [],
      "stateMutability": "nonpayable",
      "type": "function"
    },
    {
      "inputs": [
        {
          "internalType": "uint256",
          "name": "newFeeRate",
          "type": "uint256"
        }
      ],
      "name": "setProtocolFeeRate",
      "outputs": [],
      "stateMutability": "nonpayable",
      "type": "function"
    },
    {
      "inputs": [
        {
          "internalType": "bytes4",
          "name": "interfaceId",
          "type": "bytes4"
        }
      ],
      "name": "supportsInterface",
      "outputs": [
        {
          "internalType": "bool",
          "name": "",
          "type": "bool"
        }
      ],
      "stateMutability": "view",
      "type": "function"
    },
    {
      "inputs": [
        {
          "internalType": "address",
          "name": "nftAddress",
          "type": "address"
        },
        {
          "internalType": "bool",
          "name": "allowed",
          "type": "bool"
        }
      ],
      "name": "updateAllowedNFT",
      "outputs": [],
      "stateMutability": "nonpayable",
      "type": "function"
    },
    {
      "inputs": [
        {
          "internalType": "address payable",
          "name": "to",
          "type": "address"
        }
      ],
      "name": "withdrawEther",
      "outputs": [],
      "stateMutability": "nonpayable",
      "type": "function"
    },
    {
      "inputs": [
        {
          "internalType": "address payable",
          "name": "to",
          "type": "address"
        }
      ],
      "name": "withdrawProtocolFees",
      "outputs": [],
      "stateMutability": "nonpayable",
      "type": "function"
    }
  ],
  "bytecode": "0x60806040526103e860065560c86009553480156200001c57600080fd5b506001600090815562000030903362000091565b506200005d7fb19546dff01e856fb3f010c267a7b1c60363cf8a4664e21cc89c26224620214e3362000091565b506200008a7f241ecf16d79d0f8dbfb92cbc07fe17840425976cf0667f022fe9877caa831b083362000091565b5062000128565b60008281526001602090815260408083206001600160a01b038516845290915281205460ff166200011e5760008381526001602081815260408084206001600160a01b0387168086529252808420805460ff19169093179092559051339286917f2f8788117e7eff1d82e926ec794901d17c78024a50270940304540a733656f0d9190a450600162000122565b5060005b92915050565b61263580620001386000396000f3fe6080604052600436106101f95760003560e01c806391d148541161010d578063b93186ba116100a0578063deb298c31161006f578063deb298c3146105a9578063e1ec3c68146105c9578063e58378bb146106a4578063e628cf27146106c6578063ec87621c146106e657600080fd5b8063b93186ba14610533578063be4dc94f14610553578063c9a759cb14610573578063d547741f1461058957600080fd5b8063adfbe22f116100dc578063adfbe22f146104a6578063af933b57146104c6578063b13aa2d6146104e6578063b489e1471461050657600080fd5b806391d148541461043e5780639703ef351461045e578063a217fddf1461047e578063ab7b1c891461049357600080fd5b806327f8dce31161019057806334d9289e1161015f57806334d9289e146103af57806336568abe146103c557806347126f62146103e557806357c90de51461041557806358f858801461042857600080fd5b806327f8dce31461033c5780632d80caa51461034f5780632f2ff15d1461036f5780633360874c1461038f57600080fd5b806312381ec2116101cc57806312381ec21461029b5780631e837ef3146102cb578063248a9ca3146102eb57806326e885e31461031c57600080fd5b806301ffc9a7146101fe5780630a22d68c146102335780630bf08ab714610257578063121ed2a714610279575b600080fd5b34801561020a57600080fd5b5061021e61021936600461220e565b610708565b60405190151581526020015b60405180910390f35b34801561023f57600080fd5b50610249600a5481565b60405190815260200161022a565b34801561026357600080fd5b50610277610272366004612254565b61073f565b005b34801561028557600080fd5b5061028e610b54565b60405161022a9190612298565b3480156102a757600080fd5b5061021e6102b63660046122dc565b60056020526000908152604090205460ff1681565b3480156102d757600080fd5b506102776102e63660046122f9565b610bac565b3480156102f757600080fd5b506102496103063660046122f9565b6000908152600160208190526040909120015490565b34801561032857600080fd5b506102776103373660046122dc565b610c2d565b61027761034a3660046122f9565b610c54565b34801561035b57600080fd5b5061027761036a3660046122dc565b610ece565b34801561037b57600080fd5b5061027761038a366004612312565b61102e565b34801561039b57600080fd5b506102776103aa366004612342565b61105a565b3480156103bb57600080fd5b5061024960025481565b3480156103d157600080fd5b506102776103e0366004612312565b6110d6565b3480156103f157600080fd5b5061021e6104003660046122f9565b60086020526000908152604090205460ff1681565b610277610423366004612375565b61110e565b34801561043457600080fd5b5061024960095481565b34801561044a57600080fd5b5061021e610459366004612312565b61130b565b34801561046a57600080fd5b506102776104793660046122f9565b611336565b34801561048a57600080fd5b50610249600081565b6102776104a13660046122f9565b6114c8565b3480156104b257600080fd5b506102776104c13660046122f9565b611802565b3480156104d257600080fd5b506102776104e13660046122dc565b61199c565b3480156104f257600080fd5b506102776105013660046122f9565b611bb4565b34801561051257600080fd5b506102496105213660046122f9565b60046020526000908152604090205481565b34801561053f57600080fd5b5061024961054e3660046122f9565b611c4e565b34801561055f57600080fd5b5061027761056e3660046122dc565b611c6f565b34801561057f57600080fd5b5061024960065481565b34801561059557600080fd5b506102776105a4366004612312565b611c8e565b3480156105b557600080fd5b506102776105c43660046122f9565b611cb4565b3480156105d557600080fd5b506106496105e43660046122f9565b600360208190526000918252604090912080546001820154600283015493830154600484015460058501546006860154600787015460088801546009909801546001600160a01b03978816999688169897909616969495939492939192909160ff168a565b604080516001600160a01b039b8c168152998b1660208b015297909916968801969096526060870194909452608086019290925260a085015260c084015260e08301526101008201529015156101208201526101400161022a565b3480156106b057600080fd5b506102496000805160206125c083398151915281565b3480156106d257600080fd5b506102496106e13660046122f9565b611efc565b3480156106f257600080fd5b506102496000805160206125e083398151915281565b60006001600160e01b03198216637965db0b60e01b148061073957506301ffc9a760e01b6001600160e01b03198316145b92915050565b610747611ff9565b6001600160a01b038516600090815260056020526040902054859060ff166107b65760405162461bcd60e51b815260206004820152601860248201527f4e465420636f6e7472616374206e6f7420616c6c6f776564000000000000000060448201526064015b60405180910390fd5b6040516331a9108f60e11b8152600481018690528690869033906001600160a01b03841690636352211e90602401602060405180830381865afa158015610801573d6000803e3d6000fd5b505050506040513d601f19601f820116820180604052508101906108259190612397565b6001600160a01b03161461086b5760405162461bcd60e51b815260206004820152600d60248201526c2737ba1027232a1037bbb732b960991b60448201526064016107ad565b600654600754106108be5760405162461bcd60e51b815260206004820152601960248201527f416374697665206c6f616e206c696d697420726561636865640000000000000060448201526064016107ad565b6040516323b872dd60e01b81526001600160a01b038916906323b872dd906108ee90339030908c906004016123b4565b600060405180830381600087803b15801561090857600080fd5b505af115801561091c573d6000803e3d6000fd5b50505050604051806101400160405280336001600160a01b0316815260200160006001600160a01b03168152602001896001600160a01b03168152602001888152602001878152602001868152602001868152602001858152602001600081526020016000151581525060036000600254815260200190815260200160002060008201518160000160006101000a8154816001600160a01b0302191690836001600160a01b0316021790555060208201518160010160006101000a8154816001600160a01b0302191690836001600160a01b0316021790555060408201518160020160006101000a8154816001600160a01b0302191690836001600160a01b03160217905550606082015181600301556080820151816004015560a0820151816005015560c0820151816006015560e0820151816007015561010082015181600801556101208201518160090160006101000a81548160ff021916908315150217905550905050600160086000600254815260200190815260200160002060006101000a81548160ff021916908315150217905550600760025490806001815401808255809150506001900390600052602060002001600090919091909150557fa1245a80903048d748a2cbd2d90c4e25d716e52ebe400f5d87e3cb233dbb1564600254600360006002548152602001908152602001600020604051610b23929190612469565b60405180910390a160028054906000610b3b83612494565b9190505550505050610b4d6001600055565b5050505050565b60606007805480602002602001604051908101604052809291908181526020018280548015610ba257602002820191906000526020600020905b815481526020019060010190808311610b8e575b5050505050905090565b6000805160206125c0833981519152610bc481612023565b60008211610c275760405162461bcd60e51b815260206004820152602a60248201527f4d617820616374697665206c6f616e73206d7573742062652067726561746572604482015269207468616e207a65726f60b01b60648201526084016107ad565b50600655565b6000610c3881612023565b610c506000805160206125e08339815191528361102e565b5050565b610c5c611ff9565b60008181526003602052604090205481906001600160a01b0316610c925760405162461bcd60e51b81526004016107ad906124ad565b6000828152600360205260409020600981015460ff16610ce85760405162461bcd60e51b8152602060048201526011602482015270131bd85b881b9bdd081858d8d95c1d1959607a1b60448201526064016107ad565b80600701548160080154610cfc91906124da565b4211610d3d5760405162461bcd60e51b815260206004820152601060248201526f131bd85b881b9bdd08195e1c1a5c995960821b60448201526064016107ad565b600061271082600601548360040154610d5691906124ed565b610d609190612504565b90506000818360040154610d7491906124da565b9050600061271060095483610d8991906124ed565b610d939190612504565b9050803414610de45760405162461bcd60e51b815260206004820152601b60248201527f496e636f72726563742070726f746f636f6c206665652073656e74000000000060448201526064016107ad565b80600a6000828254610df691906124da565b909155505060098401805460ff19169055600284015460018501546003860154604051632142170760e11b81526001600160a01b03938416936342842e0e93610e4893309392909116916004016123b4565b600060405180830381600087803b158015610e6257600080fd5b505af1158015610e76573d6000803e3d6000fd5b505050507f09ee0d7b0b1598c76069a7aef742246a5889c7b18a88528c69ea7ddd016143de8685604051610eab929190612469565b60405180910390a1610ebc8661202d565b5050505050610ecb6001600055565b50565b610ed6611ff9565b6000805160206125c0833981519152610eee81612023565b6001600160a01b038216610f405760405162461bcd60e51b8152602060048201526019602482015278496e76616c696420726563697069656e74206164647265737360381b60448201526064016107ad565b600a80546000918290556040519091906001600160a01b0385169083908381818185875af1925050503d8060008114610f95576040519150601f19603f3d011682016040523d82523d6000602084013e610f9a565b606091505b5050905080610fdf5760405162461bcd60e51b815260206004820152601160248201527015da5d1a191c985dd85b0819985a5b1959607a1b60448201526064016107ad565b604080516001600160a01b0386168152602081018490527fa087657e3d85162090ffd700fbfdf5070d816f63aa5da00063f6ffd369c8a6db910160405180910390a1505050610ecb6001600055565b6000828152600160208190526040909120015461104a81612023565b61105483836120ef565b50505050565b6000805160206125e083398151915261107281612023565b6001600160a01b038316600081815260056020908152604091829020805460ff19168615159081179091558251938452908301527f7fe996db267f9f17db8865f67d54879fc39a38a2a37afa158a9ea52357e794ac910160405180910390a1505050565b6001600160a01b03811633146110ff5760405163334bd91960e11b815260040160405180910390fd5b6111098282612168565b505050565b611116611ff9565b60008281526003602052604090205482906001600160a01b031661114c5760405162461bcd60e51b81526004016107ad906124ad565b600083815260036020526040902060090154839060ff16156111805760405162461bcd60e51b81526004016107ad90612526565b60008481526003602052604090206006810154841080156111a5575080600501548411155b6111f15760405162461bcd60e51b815260206004820152601960248201527f42696420696e746572657374207261746520696e76616c69640000000000000060448201526064016107ad565b8060040154341461123c5760405162461bcd60e51b8152602060048201526015602482015274125b98dbdc9c9958dd081b1bd85b88185b5bdd5b9d605a1b60448201526064016107ad565b60018101546001600160a01b0316156112985760018101546000868152600460205260408082205490516001600160a01b039093169281156108fc0292818181858888f19350505050158015611296573d6000803e3d6000fd5b505b6001810180546001600160a01b031916331790556006810184905560008581526004602052604090819020349055517fe764baaf34b59b9c06a91d4c9be06e4168895472a16538801fa1256d83560608906112f69087908490612469565b60405180910390a1505050610c506001600055565b60009182526001602090815260408084206001600160a01b0393909316845291905290205460ff1690565b61133e611ff9565b60008181526003602052604090205481906001600160a01b03166113745760405162461bcd60e51b81526004016107ad906124ad565b600082815260036020526040902060090154829060ff16156113a85760405162461bcd60e51b81526004016107ad90612526565b60008381526003602052604090206001015483906001600160a01b031633146114055760405162461bcd60e51b815260206004820152600f60248201526e2737ba103637b0b7103632b73232b960891b60448201526064016107ad565b6000848152600360209081526040808320600490925280832080549084905560018301549151929390926001600160a01b039092169183156108fc0291849190818181858888f19350505050158015611462573d6000803e3d6000fd5b506001820180546001600160a01b0319169055600582015460068301556040517f3f74c0d4fffdd06ee27213c74a0ea5df0a69bd1da7260ee6ce5edc0733ec66ba906114b19088908590612469565b60405180910390a15050505050610ecb6001600055565b6114d0611ff9565b60008181526003602052604090205481906001600160a01b03166115065760405162461bcd60e51b81526004016107ad906124ad565b60008281526003602052604090205482906001600160a01b0316331461153e5760405162461bcd60e51b81526004016107ad90612555565b6000838152600360205260409020600981015460ff166115985760405162461bcd60e51b8152602060048201526015602482015274131bd85b881b9bdd081858d8d95c1d1959081e595d605a1b60448201526064016107ad565b806007015481600801546115ac91906124da565b4211156115f35760405162461bcd60e51b8152602060048201526015602482015274131bd85b88191d5c985d1a5bdb88195e1c1a5c9959605a1b60448201526064016107ad565b60006115fe85611efc565b905080341461164f5760405162461bcd60e51b815260206004820152601a60248201527f496e636f72726563742072657061796d656e7420616d6f756e7400000000000060448201526064016107ad565b60006127108360060154846004015461166891906124ed565b6116729190612504565b9050600081846004015461168691906124da565b905060006127106009548361169b91906124ed565b6116a59190612504565b905060006116b38284612580565b90506000612710600954856116c891906124ed565b6116d29190612504565b90506116de83826124da565b600a60008282546116ef91906124da565b909155505060098701805460ff19169055600287015487546003890154604051632142170760e11b81526001600160a01b03938416936342842e0e9361173e93309392909116916004016123b4565b600060405180830381600087803b15801561175857600080fd5b505af115801561176c573d6000803e3d6000fd5b50505060018801546040516001600160a01b03909116915083156108fc029084906000818181858888f193505050501580156117ac573d6000803e3d6000fd5b507f4fe420b451ac5011d50b1235ef68ba00aeac1fb98e4572723d3ff73c5a77544d8a886040516117de929190612469565b60405180910390a16117ef8a61202d565b505050505050505050610ecb6001600055565b61180a611ff9565b60008181526003602052604090205481906001600160a01b03166118405760405162461bcd60e51b81526004016107ad906124ad565b600082815260036020526040902060090154829060ff16156118745760405162461bcd60e51b81526004016107ad90612526565b60008381526003602052604090205483906001600160a01b031633146118ac5760405162461bcd60e51b81526004016107ad90612555565b600084815260036020526040902060018101546001600160a01b03166119085760405162461bcd60e51b8152602060048201526011602482015270139bc81b195b99195c88189a59081e595d607a1b60448201526064016107ad565b60098101805460ff191660011790554260088201556000858152600460205260408082208054908390558354915190926001600160a01b039092169183156108fc02918491818181858888f1935050505015801561196a573d6000803e3d6000fd5b507f1b7ba30a29ab5ed2d8ed3665b0bed8bf297e83883b7b000f267c5590511c488c86836040516114b1929190612469565b6119a4611ff9565b6000805160206125c08339815191526119bc81612023565b6001600160a01b038216611a0e5760405162461bcd60e51b8152602060048201526019602482015278496e76616c696420726563697069656e74206164647265737360381b60448201526064016107ad565b476000805b600754811015611a63576004600060078381548110611a3457611a34612593565b906000526020600020015481526020019081526020016000205482611a5991906124da565b9150600101611a13565b50600a54600090611a748385612580565b611a7e9190612580565b905060008111611ada5760405162461bcd60e51b815260206004820152602160248201527f4e6f2066756e647320617661696c61626c6520666f72207769746864726177616044820152601b60fa1b60648201526084016107ad565b6000856001600160a01b03168260405160006040518083038185875af1925050503d8060008114611b27576040519150601f19603f3d011682016040523d82523d6000602084013e611b2c565b606091505b5050905080611b755760405162461bcd60e51b8152602060048201526015602482015274115d1a195c881d1c985b9cd9995c8819985a5b1959605a1b60448201526064016107ad565b604080516001600160a01b0388168152602081018490527fa087657e3d85162090ffd700fbfdf5070d816f63aa5da00063f6ffd369c8a6db91016114b1565b6000805160206125c0833981519152611bcc81612023565b6103e8821115611c125760405162461bcd60e51b815260206004820152601160248201527008ccaca40e4c2e8ca40e8dede40d0d2ced607b1b60448201526064016107ad565b60098290556040518281527f9d2a5010795914ccbdd5a4cdee6a9aa2addac5e44443b519897523b67ddfe9fc9060200160405180910390a15050565b60078181548110611c5e57600080fd5b600091825260209091200154905081565b6000611c7a81612023565b610c506000805160206125e0833981519152835b60008281526001602081905260409091200154611caa81612023565b6110548383612168565b611cbc611ff9565b60008181526003602052604090205481906001600160a01b0316611cf25760405162461bcd60e51b81526004016107ad906124ad565b600082815260036020526040902060090154829060ff1615611d265760405162461bcd60e51b81526004016107ad90612526565b60008381526003602052604090205483906001600160a01b03163314611d5e5760405162461bcd60e51b81526004016107ad90612555565b600084815260036020526040902060018101546001600160a01b031615611dd2576000858152600460205260408082208054908390556001840154915190926001600160a01b039092169183156108fc02918491818181858888f19350505050158015611dcf573d6000803e3d6000fd5b50505b600281015481546003830154604051632142170760e11b81526001600160a01b03938416936342842e0e93611e1093309392909116916004016123b4565b600060405180830381600087803b158015611e2a57600080fd5b505af1158015611e3e573d6000803e3d6000fd5b5050506000868152600360208190526040822080546001600160a01b03199081168255600182018054821690556002820180549091169055908101829055600481018290556005810182905560068101829055600781018290556008810191909155600901805460ff1916905550611eb58561202d565b7f9962ecc38361b4460de4f01702f2a85a431a9c4cfde122c42a438ba50f9fdd928582604051611ee6929190612469565b60405180910390a150505050610ecb6001600055565b60008181526003602052604081205482906001600160a01b0316611f325760405162461bcd60e51b81526004016107ad906124ad565b6000838152600360205260409020600981015460ff16611f8c5760405162461bcd60e51b8152602060048201526015602482015274131bd85b881b9bdd081858d8d95c1d1959081e595d605a1b60448201526064016107ad565b600061271082600601548360040154611fa591906124ed565b611faf9190612504565b90506000818360040154611fc391906124da565b9050600061271060095483611fd891906124ed565b611fe29190612504565b9050611fee81836124da565b979650505050505050565b60026000540361201c57604051633ee5aeb560e01b815260040160405180910390fd5b6002600055565b610ecb81336121d5565b6000818152600860205260408120805460ff191690555b600754811015610c5057816007828154811061206257612062612593565b9060005260206000200154036120e7576007805461208290600190612580565b8154811061209257612092612593565b9060005260206000200154600782815481106120b0576120b0612593565b60009182526020909120015560078054806120cd576120cd6125a9565b600190038181906000526020600020016000905590555050565b600101612044565b60006120fb838361130b565b6121605760008381526001602081815260408084206001600160a01b0387168086529252808420805460ff19169093179092559051339286917f2f8788117e7eff1d82e926ec794901d17c78024a50270940304540a733656f0d9190a4506001610739565b506000610739565b6000612174838361130b565b156121605760008381526001602090815260408083206001600160a01b0386168085529252808320805460ff1916905551339286917ff6391f5c32d9c69d2a47ea670b442974b53935d1edc7fd64eb21e047a839171b9190a4506001610739565b6121df828261130b565b610c505760405163e2517d3f60e01b81526001600160a01b0382166004820152602481018390526044016107ad565b60006020828403121561222057600080fd5b81356001600160e01b03198116811461223857600080fd5b9392505050565b6001600160a01b0381168114610ecb57600080fd5b600080600080600060a0868803121561226c57600080fd5b85356122778161223f565b97602087013597506040870135966060810135965060800135945092505050565b6020808252825182820181905260009190848201906040850190845b818110156122d0578351835292840192918401916001016122b4565b50909695505050505050565b6000602082840312156122ee57600080fd5b81356122388161223f565b60006020828403121561230b57600080fd5b5035919050565b6000806040838503121561232557600080fd5b8235915060208301356123378161223f565b809150509250929050565b6000806040838503121561235557600080fd5b82356123608161223f565b91506020830135801515811461233757600080fd5b6000806040838503121561238857600080fd5b50508035926020909101359150565b6000602082840312156123a957600080fd5b81516122388161223f565b6001600160a01b039384168152919092166020820152604081019190915260600190565b6123fa826123ed83546001600160a01b031690565b6001600160a01b03169052565b60018101546001600160a01b03908116602084015260028201541660408301526003810154606083015260048101546080830152600581015460a0830152600681015460c0830152600781015460e083015260088101546101008301526009015460ff16151561012090910152565b828152610160810161223860208301846123d8565b634e487b7160e01b600052601160045260246000fd5b6000600182016124a6576124a661247e565b5060010190565b602080825260139082015272131bd85b88191bd95cc81b9bdd08195e1a5cdd606a1b604082015260600190565b808201808211156107395761073961247e565b80820281158282048414176107395761073961247e565b60008261252157634e487b7160e01b600052601260045260246000fd5b500490565b602080825260159082015274131bd85b88185b1c9958591e481858d8d95c1d1959605a1b604082015260600190565b6020808252601190820152702737ba103637b0b7103137b93937bbb2b960791b604082015260600190565b818103818111156107395761073961247e565b634e487b7160e01b600052603260045260246000fd5b634e487b7160e01b600052603160045260246000fdfeb19546dff01e856fb3f010c267a7b1c60363cf8a4664e21cc89c26224620214e241ecf16d79d0f8dbfb92cbc07fe17840425976cf0667f022fe9877caa831b08a26469706673582212206a0bd94cff429868d38c5c3be9985eea04bebfe53108f4c7bc85b92720946a1064736f6c63430008170033",
  "linkReferences": {},
  "deployedLinkReferences": {}
}