{
  "_format": "hh-sol-artifact-1",
  "contractName": "NFTLendAuction",
  "sourceName": "contracts/NFTLendAuction.sol",
  "abi": [
    {
      "inputs": [],
      "stateMutability": "nonpayable",
      "type": "constructor"
    },
    {
      "inputs": [
        {
          "internalType": "address",
          "name": "owner",
          "type": "address"
        }
      ],
      "name": "OwnableInvalidOwner",
      "type": "error"
    },
    {
      "inputs": [
        {
          "internalType": "address",
          "name": "account",
          "type": "address"
        }
      ],
      "name": "OwnableUnauthorizedAccount",
      "type": "error"
    },
    {
      "inputs": [],
      "name": "ReentrancyGuardReentrantCall",
      "type": "error"
    },
    {
      "anonymous": false,
      "inputs": [
        {
          "indexed": false,
          "internalType": "address",
          "name": "nftAddress",
          "type": "address"
        },
        {
          "indexed": false,
          "internalType": "bool",
          "name": "allowed",
          "type": "bool"
        }
      ],
      "name": "AllowedNFTUpdated",
      "type": "event"
    },
    {
      "anonymous": false,
      "inputs": [
        {
          "indexed": false,
          "internalType": "uint256",
          "name": "loanId",
          "type": "uint256"
        },
        {
          "components": [
            {
              "internalType": "address",
              "name": "borrower",
              "type": "address"
            },
            {
              "internalType": "address",
              "name": "lender",
              "type": "address"
            },
            {
              "internalType": "address",
              "name": "nftAddress",
              "type": "address"
            },
            {
              "internalType": "uint256",
              "name": "tokenId",
              "type": "uint256"
            },
            {
              "internalType": "uint256",
              "name": "loanAmount",
              "type": "uint256"
            },
            {
              "internalType": "uint256",
              "name": "maxInterestRate",
              "type": "uint256"
            },
            {
              "internalType": "uint256",
              "name": "currentInterestRate",
              "type": "uint256"
            },
            {
              "internalType": "uint256",
              "name": "duration",
              "type": "uint256"
            },
            {
              "internalType": "uint256",
              "name": "startTime",
              "type": "uint256"
            },
            {
              "internalType": "bool",
              "name": "isAccepted",
              "type": "bool"
            }
          ],
          "indexed": false,
          "internalType": "struct NFTLendAuction.Loan",
          "name": "loan",
          "type": "tuple"
        }
      ],
      "name": "LoanAccepted",
      "type": "event"
    },
    {
      "anonymous": false,
      "inputs": [
        {
          "indexed": false,
          "internalType": "uint256",
          "name": "loanId",
          "type": "uint256"
        },
        {
          "components": [
            {
              "internalType": "address",
              "name": "borrower",
              "type": "address"
            },
            {
              "internalType": "address",
              "name": "lender",
              "type": "address"
            },
            {
              "internalType": "address",
              "name": "nftAddress",
              "type": "address"
            },
            {
              "internalType": "uint256",
              "name": "tokenId",
              "type": "uint256"
            },
            {
              "internalType": "uint256",
              "name": "loanAmount",
              "type": "uint256"
            },
            {
              "internalType": "uint256",
              "name": "maxInterestRate",
              "type": "uint256"
            },
            {
              "internalType": "uint256",
              "name": "currentInterestRate",
              "type": "uint256"
            },
            {
              "internalType": "uint256",
              "name": "duration",
              "type": "uint256"
            },
            {
              "internalType": "uint256",
              "name": "startTime",
              "type": "uint256"
            },
            {
              "internalType": "bool",
              "name": "isAccepted",
              "type": "bool"
            }
          ],
          "indexed": false,
          "internalType": "struct NFTLendAuction.Loan",
          "name": "loan",
          "type": "tuple"
        }
      ],
      "name": "LoanBidCancelled",
      "type": "event"
    },
    {
      "anonymous": false,
      "inputs": [
        {
          "indexed": false,
          "internalType": "uint256",
          "name": "loanId",
          "type": "uint256"
        },
        {
          "components": [
            {
              "internalType": "address",
              "name": "borrower",
              "type": "address"
            },
            {
              "internalType": "address",
              "name": "lender",
              "type": "address"
            },
            {
              "internalType": "address",
              "name": "nftAddress",
              "type": "address"
            },
            {
              "internalType": "uint256",
              "name": "tokenId",
              "type": "uint256"
            },
            {
              "internalType": "uint256",
              "name": "loanAmount",
              "type": "uint256"
            },
            {
              "internalType": "uint256",
              "name": "maxInterestRate",
              "type": "uint256"
            },
            {
              "internalType": "uint256",
              "name": "currentInterestRate",
              "type": "uint256"
            },
            {
              "internalType": "uint256",
              "name": "duration",
              "type": "uint256"
            },
            {
              "internalType": "uint256",
              "name": "startTime",
              "type": "uint256"
            },
            {
              "internalType": "bool",
              "name": "isAccepted",
              "type": "bool"
            }
          ],
          "indexed": false,
          "internalType": "struct NFTLendAuction.Loan",
          "name": "loan",
          "type": "tuple"
        }
      ],
      "name": "LoanBidPlaced",
      "type": "event"
    },
    {
      "anonymous": false,
      "inputs": [
        {
          "indexed": false,
          "internalType": "uint256",
          "name": "loanId",
          "type": "uint256"
        },
        {
          "components": [
            {
              "internalType": "address",
              "name": "borrower",
              "type": "address"
            },
            {
              "internalType": "address",
              "name": "lender",
              "type": "address"
            },
            {
              "internalType": "address",
              "name": "nftAddress",
              "type": "address"
            },
            {
              "internalType": "uint256",
              "name": "tokenId",
              "type": "uint256"
            },
            {
              "internalType": "uint256",
              "name": "loanAmount",
              "type": "uint256"
            },
            {
              "internalType": "uint256",
              "name": "maxInterestRate",
              "type": "uint256"
            },
            {
              "internalType": "uint256",
              "name": "currentInterestRate",
              "type": "uint256"
            },
            {
              "internalType": "uint256",
              "name": "duration",
              "type": "uint256"
            },
            {
              "internalType": "uint256",
              "name": "startTime",
              "type": "uint256"
            },
            {
              "internalType": "bool",
              "name": "isAccepted",
              "type": "bool"
            }
          ],
          "indexed": false,
          "internalType": "struct NFTLendAuction.Loan",
          "name": "loan",
          "type": "tuple"
        }
      ],
      "name": "LoanDefaulted",
      "type": "event"
    },
    {
      "anonymous": false,
      "inputs": [
        {
          "indexed": false,
          "internalType": "uint256",
          "name": "loanId",
          "type": "uint256"
        },
        {
          "components": [
            {
              "internalType": "address",
              "name": "borrower",
              "type": "address"
            },
            {
              "internalType": "address",
              "name": "lender",
              "type": "address"
            },
            {
              "internalType": "address",
              "name": "nftAddress",
              "type": "address"
            },
            {
              "internalType": "uint256",
              "name": "tokenId",
              "type": "uint256"
            },
            {
              "internalType": "uint256",
              "name": "loanAmount",
              "type": "uint256"
            },
            {
              "internalType": "uint256",
              "name": "maxInterestRate",
              "type": "uint256"
            },
            {
              "internalType": "uint256",
              "name": "currentInterestRate",
              "type": "uint256"
            },
            {
              "internalType": "uint256",
              "name": "duration",
              "type": "uint256"
            },
            {
              "internalType": "uint256",
              "name": "startTime",
              "type": "uint256"
            },
            {
              "internalType": "bool",
              "name": "isAccepted",
              "type": "bool"
            }
          ],
          "indexed": false,
          "internalType": "struct NFTLendAuction.Loan",
          "name": "loan",
          "type": "tuple"
        }
      ],
      "name": "LoanDelisted",
      "type": "event"
    },
    {
      "anonymous": false,
      "inputs": [
        {
          "indexed": false,
          "internalType": "uint256",
          "name": "loanId",
          "type": "uint256"
        },
        {
          "components": [
            {
              "internalType": "address",
              "name": "borrower",
              "type": "address"
            },
            {
              "internalType": "address",
              "name": "lender",
              "type": "address"
            },
            {
              "internalType": "address",
              "name": "nftAddress",
              "type": "address"
            },
            {
              "internalType": "uint256",
              "name": "tokenId",
              "type": "uint256"
            },
            {
              "internalType": "uint256",
              "name": "loanAmount",
              "type": "uint256"
            },
            {
              "internalType": "uint256",
              "name": "maxInterestRate",
              "type": "uint256"
            },
            {
              "internalType": "uint256",
              "name": "currentInterestRate",
              "type": "uint256"
            },
            {
              "internalType": "uint256",
              "name": "duration",
              "type": "uint256"
            },
            {
              "internalType": "uint256",
              "name": "startTime",
              "type": "uint256"
            },
            {
              "internalType": "bool",
              "name": "isAccepted",
              "type": "bool"
            }
          ],
          "indexed": false,
          "internalType": "struct NFTLendAuction.Loan",
          "name": "loan",
          "type": "tuple"
        }
      ],
      "name": "LoanListed",
      "type": "event"
    },
    {
      "anonymous": false,
      "inputs": [
        {
          "indexed": false,
          "internalType": "uint256",
          "name": "loanId",
          "type": "uint256"
        },
        {
          "components": [
            {
              "internalType": "address",
              "name": "borrower",
              "type": "address"
            },
            {
              "internalType": "address",
              "name": "lender",
              "type": "address"
            },
            {
              "internalType": "address",
              "name": "nftAddress",
              "type": "address"
            },
            {
              "internalType": "uint256",
              "name": "tokenId",
              "type": "uint256"
            },
            {
              "internalType": "uint256",
              "name": "loanAmount",
              "type": "uint256"
            },
            {
              "internalType": "uint256",
              "name": "maxInterestRate",
              "type": "uint256"
            },
            {
              "internalType": "uint256",
              "name": "currentInterestRate",
              "type": "uint256"
            },
            {
              "internalType": "uint256",
              "name": "duration",
              "type": "uint256"
            },
            {
              "internalType": "uint256",
              "name": "startTime",
              "type": "uint256"
            },
            {
              "internalType": "bool",
              "name": "isAccepted",
              "type": "bool"
            }
          ],
          "indexed": false,
          "internalType": "struct NFTLendAuction.Loan",
          "name": "loan",
          "type": "tuple"
        }
      ],
      "name": "LoanRepaid",
      "type": "event"
    },
    {
      "anonymous": false,
      "inputs": [
        {
          "indexed": true,
          "internalType": "address",
          "name": "previousOwner",
          "type": "address"
        },
        {
          "indexed": true,
          "internalType": "address",
          "name": "newOwner",
          "type": "address"
        }
      ],
      "name": "OwnershipTransferred",
      "type": "event"
    },
    {
      "inputs": [
        {
          "internalType": "uint256",
          "name": "loanId",
          "type": "uint256"
        }
      ],
      "name": "acceptLoan",
      "outputs": [],
      "stateMutability": "nonpayable",
      "type": "function"
    },
    {
      "inputs": [
        {
          "internalType": "uint256",
          "name": "",
          "type": "uint256"
        }
      ],
      "name": "activeLoanIds",
      "outputs": [
        {
          "internalType": "uint256",
          "name": "",
          "type": "uint256"
        }
      ],
      "stateMutability": "view",
      "type": "function"
    },
    {
      "inputs": [
        {
          "internalType": "uint256",
          "name": "",
          "type": "uint256"
        }
      ],
      "name": "activeLoans",
      "outputs": [
        {
          "internalType": "bool",
          "name": "",
          "type": "bool"
        }
      ],
      "stateMutability": "view",
      "type": "function"
    },
    {
      "inputs": [
        {
          "internalType": "address",
          "name": "",
          "type": "address"
        }
      ],
      "name": "allowedNFTs",
      "outputs": [
        {
          "internalType": "bool",
          "name": "",
          "type": "bool"
        }
      ],
      "stateMutability": "view",
      "type": "function"
    },
    {
      "inputs": [
        {
          "internalType": "uint256",
          "name": "loanId",
          "type": "uint256"
        }
      ],
      "name": "cancelBid",
      "outputs": [],
      "stateMutability": "nonpayable",
      "type": "function"
    },
    {
      "inputs": [
        {
          "internalType": "uint256",
          "name": "loanId",
          "type": "uint256"
        }
      ],
      "name": "claimDefaultedLoan",
      "outputs": [],
      "stateMutability": "nonpayable",
      "type": "function"
    },
    {
      "inputs": [
        {
          "internalType": "uint256",
          "name": "loanId",
          "type": "uint256"
        }
      ],
      "name": "delistLoan",
      "outputs": [],
      "stateMutability": "nonpayable",
      "type": "function"
    },
    {
      "inputs": [
        {
          "internalType": "uint256",
          "name": "",
          "type": "uint256"
        }
      ],
      "name": "escrowedFunds",
      "outputs": [
        {
          "internalType": "uint256",
          "name": "",
          "type": "uint256"
        }
      ],
      "stateMutability": "view",
      "type": "function"
    },
    {
      "inputs": [],
      "name": "getActiveLoans",
      "outputs": [
        {
          "internalType": "uint256[]",
          "name": "",
          "type": "uint256[]"
        }
      ],
      "stateMutability": "view",
      "type": "function"
    },
    {
      "inputs": [
        {
          "internalType": "address",
          "name": "nftAddress",
          "type": "address"
        },
        {
          "internalType": "uint256",
          "name": "tokenId",
          "type": "uint256"
        },
        {
          "internalType": "uint256",
          "name": "loanAmount",
          "type": "uint256"
        },
        {
          "internalType": "uint256",
          "name": "maxInterestRate",
          "type": "uint256"
        },
        {
          "internalType": "uint256",
          "name": "duration",
          "type": "uint256"
        }
      ],
      "name": "listLoan",
      "outputs": [],
      "stateMutability": "nonpayable",
      "type": "function"
    },
    {
      "inputs": [],
      "name": "loanCounter",
      "outputs": [
        {
          "internalType": "uint256",
          "name": "",
          "type": "uint256"
        }
      ],
      "stateMutability": "view",
      "type": "function"
    },
    {
      "inputs": [
        {
          "internalType": "uint256",
          "name": "",
          "type": "uint256"
        }
      ],
      "name": "loans",
      "outputs": [
        {
          "internalType": "address",
          "name": "borrower",
          "type": "address"
        },
        {
          "internalType": "address",
          "name": "lender",
          "type": "address"
        },
        {
          "internalType": "address",
          "name": "nftAddress",
          "type": "address"
        },
        {
          "internalType": "uint256",
          "name": "tokenId",
          "type": "uint256"
        },
        {
          "internalType": "uint256",
          "name": "loanAmount",
          "type": "uint256"
        },
        {
          "internalType": "uint256",
          "name": "maxInterestRate",
          "type": "uint256"
        },
        {
          "internalType": "uint256",
          "name": "currentInterestRate",
          "type": "uint256"
        },
        {
          "internalType": "uint256",
          "name": "duration",
          "type": "uint256"
        },
        {
          "internalType": "uint256",
          "name": "startTime",
          "type": "uint256"
        },
        {
          "internalType": "bool",
          "name": "isAccepted",
          "type": "bool"
        }
      ],
      "stateMutability": "view",
      "type": "function"
    },
    {
      "inputs": [],
      "name": "owner",
      "outputs": [
        {
          "internalType": "address",
          "name": "",
          "type": "address"
        }
      ],
      "stateMutability": "view",
      "type": "function"
    },
    {
      "inputs": [
        {
          "internalType": "uint256",
          "name": "loanId",
          "type": "uint256"
        },
        {
          "internalType": "uint256",
          "name": "interestRate",
          "type": "uint256"
        }
      ],
      "name": "placeBid",
      "outputs": [],
      "stateMutability": "payable",
      "type": "function"
    },
    {
      "inputs": [],
      "name": "renounceOwnership",
      "outputs": [],
      "stateMutability": "nonpayable",
      "type": "function"
    },
    {
      "inputs": [
        {
          "internalType": "uint256",
          "name": "loanId",
          "type": "uint256"
        }
      ],
      "name": "repayLoan",
      "outputs": [],
      "stateMutability": "payable",
      "type": "function"
    },
    {
      "inputs": [
        {
          "internalType": "address",
          "name": "newOwner",
          "type": "address"
        }
      ],
      "name": "transferOwnership",
      "outputs": [],
      "stateMutability": "nonpayable",
      "type": "function"
    },
    {
      "inputs": [
        {
          "internalType": "address",
          "name": "nftAddress",
          "type": "address"
        },
        {
          "internalType": "bool",
          "name": "allowed",
          "type": "bool"
        }
      ],
      "name": "updateAllowedNFT",
      "outputs": [],
      "stateMutability": "nonpayable",
      "type": "function"
    }
  ],
  "bytecode": "0x608060405234801561001057600080fd5b506001600055338061003c57604051631e4fbdf760e01b81526000600482015260240160405180910390fd5b6100458161004b565b5061009d565b600180546001600160a01b038381166001600160a01b0319831681179093556040519116919082907f8be0079c531659141344cd1fd0a4f28419497f9722a3daafe3b4186f6b6457e090600090a35050565b611a2b806100ac6000396000f3fe6080604052600436106101095760003560e01c80638da5cb5b11610095578063b489e14711610064578063b489e147146102d2578063b93186ba146102ff578063deb298c31461031f578063e1ec3c681461033f578063f2fde38b1461041a57600080fd5b80638da5cb5b146102575780639703ef351461027f578063ab7b1c891461029f578063adfbe22f146102b257600080fd5b80633360874c116100dc5780633360874c146101bb57806334d9289e146101db57806347126f62146101ff57806357c90de51461022f578063715018a61461024257600080fd5b80630bf08ab71461010e578063121ed2a71461013057806312381ec21461015b57806327f8dce31461019b575b600080fd5b34801561011a57600080fd5b5061012e6101293660046116a2565b61043a565b005b34801561013c57600080fd5b506101456107f6565b60405161015291906116e6565b60405180910390f35b34801561016757600080fd5b5061018b61017636600461172a565b60056020526000908152604090205460ff1681565b6040519015158152602001610152565b3480156101a757600080fd5b5061012e6101b636600461174e565b61084e565b3480156101c757600080fd5b5061012e6101d6366004611767565b610a07565b3480156101e757600080fd5b506101f160025481565b604051908152602001610152565b34801561020b57600080fd5b5061018b61021a36600461174e565b60076020526000908152604090205460ff1681565b61012e61023d3660046117a5565b610a72565b34801561024e57600080fd5b5061012e610c73565b34801561026357600080fd5b506001546040516001600160a01b039091168152602001610152565b34801561028b57600080fd5b5061012e61029a36600461174e565b610c87565b61012e6102ad36600461174e565b610e23565b3480156102be57600080fd5b5061012e6102cd36600461174e565b6110d9565b3480156102de57600080fd5b506101f16102ed36600461174e565b60046020526000908152604090205481565b34801561030b57600080fd5b506101f161031a36600461174e565b61128a565b34801561032b57600080fd5b5061012e61033a36600461174e565b6112ab565b34801561034b57600080fd5b506103bf61035a36600461174e565b600360208190526000918252604090912080546001820154600283015493830154600484015460058501546006860154600787015460088801546009909801546001600160a01b03978816999688169897909616969495939492939192909160ff168a565b604080516001600160a01b039b8c168152998b1660208b015297909916968801969096526060870194909452608086019290925260a085015260c084015260e083015261010082015290151561012082015261014001610152565b34801561042657600080fd5b5061012e61043536600461172a565b6114dd565b610442611518565b6001600160a01b038516600090815260056020526040902054859060ff166104b15760405162461bcd60e51b815260206004820152601860248201527f4e465420636f6e7472616374206e6f7420616c6c6f776564000000000000000060448201526064015b60405180910390fd5b6040516331a9108f60e11b81526004810186905233906001600160a01b03881690636352211e90602401602060405180830381865afa1580156104f8573d6000803e3d6000fd5b505050506040513d601f19601f8201168201806040525081019061051c91906117c7565b6001600160a01b0316146105625760405162461bcd60e51b815260206004820152600d60248201526c2737ba1027232a1037bbb732b960991b60448201526064016104a8565b6040516323b872dd60e01b81526001600160a01b038716906323b872dd9061059290339030908a906004016117e4565b600060405180830381600087803b1580156105ac57600080fd5b505af11580156105c0573d6000803e3d6000fd5b50505050604051806101400160405280336001600160a01b0316815260200160006001600160a01b03168152602001876001600160a01b03168152602001868152602001858152602001848152602001848152602001838152602001600081526020016000151581525060036000600254815260200190815260200160002060008201518160000160006101000a8154816001600160a01b0302191690836001600160a01b0316021790555060208201518160010160006101000a8154816001600160a01b0302191690836001600160a01b0316021790555060408201518160020160006101000a8154816001600160a01b0302191690836001600160a01b03160217905550606082015181600301556080820151816004015560a0820151816005015560c0820151816006015560e0820151816007015561010082015181600801556101208201518160090160006101000a81548160ff021916908315150217905550905050600160076000600254815260200190815260200160002060006101000a81548160ff021916908315150217905550600660025490806001815401808255809150506001900390600052602060002001600090919091909150557fa1245a80903048d748a2cbd2d90c4e25d716e52ebe400f5d87e3cb233dbb15646002546003600060025481526020019081526020016000206040516107c7929190611899565b60405180910390a1600280549060006107df836118c4565b9190505550506107ef6001600055565b5050505050565b6060600680548060200260200160405190810160405280929190818152602001828054801561084457602002820191906000526020600020905b815481526020019060010190808311610830575b5050505050905090565b610856611518565b60008181526003602052604090205481906001600160a01b031661088c5760405162461bcd60e51b81526004016104a8906118dd565b6000828152600360205260409020600981015460ff166108e25760405162461bcd60e51b8152602060048201526011602482015270131bd85b881b9bdd081858d8d95c1d1959607a1b60448201526064016104a8565b806007015481600801546108f6919061190a565b42116109375760405162461bcd60e51b815260206004820152601060248201526f131bd85b881b9bdd08195e1c1a5c995960821b60448201526064016104a8565b60098101805460ff191690556002810154600182015460038301546040516323b872dd60e01b81526001600160a01b03938416936323b872dd9361098493309392909116916004016117e4565b600060405180830381600087803b15801561099e57600080fd5b505af11580156109b2573d6000803e3d6000fd5b505050507f09ee0d7b0b1598c76069a7aef742246a5889c7b18a88528c69ea7ddd016143de83826040516109e7929190611899565b60405180910390a16109f883611542565b5050610a046001600055565b50565b610a0f61160e565b6001600160a01b038216600081815260056020908152604091829020805460ff19168515159081179091558251938452908301527f7fe996db267f9f17db8865f67d54879fc39a38a2a37afa158a9ea52357e794ac910160405180910390a15050565b610a7a611518565b60008281526003602052604090205482906001600160a01b0316610ab05760405162461bcd60e51b81526004016104a8906118dd565b600083815260036020526040902060090154839060ff1615610ae45760405162461bcd60e51b81526004016104a890611923565b6000848152600360205260409020600681015484108015610b09575080600501548411155b610b555760405162461bcd60e51b815260206004820152601960248201527f42696420696e746572657374207261746520696e76616c69640000000000000060448201526064016104a8565b80600401543414610ba05760405162461bcd60e51b8152602060048201526015602482015274125b98dbdc9c9958dd081b1bd85b88185b5bdd5b9d605a1b60448201526064016104a8565b60018101546001600160a01b031615610bfc5760018101546000868152600460205260408082205490516001600160a01b039093169281156108fc0292818181858888f19350505050158015610bfa573d6000803e3d6000fd5b505b6001810180546001600160a01b031916331790556006810184905560008581526004602052604090819020349055517fe764baaf34b59b9c06a91d4c9be06e4168895472a16538801fa1256d8356060890610c5a9087908490611899565b60405180910390a1505050610c6f6001600055565b5050565b610c7b61160e565b610c85600061163b565b565b610c8f611518565b60008181526003602052604090205481906001600160a01b0316610cc55760405162461bcd60e51b81526004016104a8906118dd565b600082815260036020526040902060090154829060ff1615610cf95760405162461bcd60e51b81526004016104a890611923565b600083815260036020526040902060018101546001600160a01b03163314610d6e5760405162461bcd60e51b815260206004820152602260248201527f4f6e6c7920746865206c656e6465722063616e2063616e63656c2074686520626044820152611a5960f21b60648201526084016104a8565b6000848152600460205260408082208054908390556001840154915190926001600160a01b039092169183156108fc02918491818181858888f19350505050158015610dbe573d6000803e3d6000fd5b506001820180546001600160a01b0319169055600582015460068301556040517f3f74c0d4fffdd06ee27213c74a0ea5df0a69bd1da7260ee6ce5edc0733ec66ba90610e0d9087908590611899565b60405180910390a150505050610a046001600055565b610e2b611518565b60008181526003602052604090205481906001600160a01b0316610e615760405162461bcd60e51b81526004016104a8906118dd565b60008281526003602052604090205482906001600160a01b03163314610e995760405162461bcd60e51b81526004016104a890611952565b6000838152600360205260409020600981015460ff16610ef35760405162461bcd60e51b8152602060048201526015602482015274131bd85b881b9bdd081858d8d95c1d1959081e595d605a1b60448201526064016104a8565b80600701548160080154610f07919061190a565b421115610f4e5760405162461bcd60e51b8152602060048201526015602482015274131bd85b88191d5c985d1a5bdb88195e1c1a5c9959605a1b60448201526064016104a8565b600061271082600601548360040154610f67919061197d565b610f719190611994565b8260040154610f80919061190a565b9050803414610fd15760405162461bcd60e51b815260206004820152601a60248201527f496e636f72726563742072657061796d656e7420616d6f756e7400000000000060448201526064016104a8565b60098201805460ff191690556002820154825460038401546040516323b872dd60e01b81526001600160a01b03938416936323b872dd9361101b93309392909116916004016117e4565b600060405180830381600087803b15801561103557600080fd5b505af1158015611049573d6000803e3d6000fd5b50505060018301546040516001600160a01b0390911691503480156108fc02916000818181858888f19350505050158015611088573d6000803e3d6000fd5b507f4fe420b451ac5011d50b1235ef68ba00aeac1fb98e4572723d3ff73c5a77544d85836040516110ba929190611899565b60405180910390a16110cb85611542565b50505050610a046001600055565b6110e1611518565b60008181526003602052604090205481906001600160a01b03166111175760405162461bcd60e51b81526004016104a8906118dd565b600082815260036020526040902060090154829060ff161561114b5760405162461bcd60e51b81526004016104a890611923565b60008381526003602052604090205483906001600160a01b031633146111835760405162461bcd60e51b81526004016104a890611952565b600084815260036020526040902060018101546001600160a01b03166111df5760405162461bcd60e51b8152602060048201526011602482015270139bc81b195b99195c88189a59081e595d607a1b60448201526064016104a8565b60098101805460ff191660011790554260088201556000858152600460205260408082208054908390558354915190926001600160a01b039092169183156108fc02918491818181858888f19350505050158015611241573d6000803e3d6000fd5b507f1b7ba30a29ab5ed2d8ed3665b0bed8bf297e83883b7b000f267c5590511c488c8683604051611273929190611899565b60405180910390a15050505050610a046001600055565b6006818154811061129a57600080fd5b600091825260209091200154905081565b6112b3611518565b60008181526003602052604090205481906001600160a01b03166112e95760405162461bcd60e51b81526004016104a8906118dd565b600082815260036020526040902060090154829060ff161561131d5760405162461bcd60e51b81526004016104a890611923565b60008381526003602052604090205483906001600160a01b031633146113555760405162461bcd60e51b81526004016104a890611952565b600084815260036020526040902060018101546001600160a01b0316156113c9576000858152600460205260408082208054908390556001840154915190926001600160a01b039092169183156108fc02918491818181858888f193505050501580156113c6573d6000803e3d6000fd5b50505b6002810154815460038301546040516323b872dd60e01b81526001600160a01b03938416936323b872dd9361140793309392909116916004016117e4565b600060405180830381600087803b15801561142157600080fd5b505af1158015611435573d6000803e3d6000fd5b5050506000868152600360208190526040822080546001600160a01b03199081168255600182018054821690556002820180549091169055908101829055600481018290556005810182905560068101829055600781018290556008810191909155600901805460ff19169055506114ac85611542565b7f9962ecc38361b4460de4f01702f2a85a431a9c4cfde122c42a438ba50f9fdd928582604051610e0d929190611899565b6114e561160e565b6001600160a01b03811661150f57604051631e4fbdf760e01b8152600060048201526024016104a8565b610a048161163b565b60026000540361153b57604051633ee5aeb560e01b815260040160405180910390fd5b6002600055565b6000818152600760205260408120805460ff191690555b600654811015610c6f578160068281548110611577576115776119b6565b9060005260206000200154036115fc5760068054611597906001906119cc565b815481106115a7576115a76119b6565b9060005260206000200154600682815481106115c5576115c56119b6565b60009182526020909120015560068054806115e2576115e26119df565b600190038181906000526020600020016000905590555050565b80611606816118c4565b915050611559565b6001546001600160a01b03163314610c855760405163118cdaa760e01b81523360048201526024016104a8565b600180546001600160a01b038381166001600160a01b0319831681179093556040519116919082907f8be0079c531659141344cd1fd0a4f28419497f9722a3daafe3b4186f6b6457e090600090a35050565b6001600160a01b0381168114610a0457600080fd5b600080600080600060a086880312156116ba57600080fd5b85356116c58161168d565b97602087013597506040870135966060810135965060800135945092505050565b6020808252825182820181905260009190848201906040850190845b8181101561171e57835183529284019291840191600101611702565b50909695505050505050565b60006020828403121561173c57600080fd5b81356117478161168d565b9392505050565b60006020828403121561176057600080fd5b5035919050565b6000806040838503121561177a57600080fd5b82356117858161168d565b91506020830135801515811461179a57600080fd5b809150509250929050565b600080604083850312156117b857600080fd5b50508035926020909101359150565b6000602082840312156117d957600080fd5b81516117478161168d565b6001600160a01b039384168152919092166020820152604081019190915260600190565b61182a8261181d83546001600160a01b031690565b6001600160a01b03169052565b60018101546001600160a01b03908116602084015260028201541660408301526003810154606083015260048101546080830152600581015460a0830152600681015460c0830152600781015460e083015260088101546101008301526009015460ff16151561012090910152565b82815261016081016117476020830184611808565b634e487b7160e01b600052601160045260246000fd5b6000600182016118d6576118d66118ae565b5060010190565b602080825260139082015272131bd85b88191bd95cc81b9bdd08195e1a5cdd606a1b604082015260600190565b8082018082111561191d5761191d6118ae565b92915050565b602080825260159082015274131bd85b88185b1c9958591e481858d8d95c1d1959605a1b604082015260600190565b6020808252601190820152702737ba103637b0b7103137b93937bbb2b960791b604082015260600190565b808202811582820484141761191d5761191d6118ae565b6000826119b157634e487b7160e01b600052601260045260246000fd5b500490565b634e487b7160e01b600052603260045260246000fd5b8181038181111561191d5761191d6118ae565b634e487b7160e01b600052603160045260246000fdfea264697066735822122058e1f27e788cc205f5150959973c8adf7a7ec27b8a33b79e65538cb23a98fb3764736f6c63430008140033",
  "linkReferences": {},
  "deployedLinkReferences": {}
}