{
  "_format": "hh-sol-artifact-1",
  "contractName": "NFTLendAuction",
  "sourceName": "contracts/NFTLendAuction.sol",
  "abi": [
    {
      "inputs": [],
      "stateMutability": "nonpayable",
      "type": "constructor"
    },
    {
      "inputs": [
        {
          "internalType": "address",
          "name": "owner",
          "type": "address"
        }
      ],
      "name": "OwnableInvalidOwner",
      "type": "error"
    },
    {
      "inputs": [
        {
          "internalType": "address",
          "name": "account",
          "type": "address"
        }
      ],
      "name": "OwnableUnauthorizedAccount",
      "type": "error"
    },
    {
      "inputs": [],
      "name": "ReentrancyGuardReentrantCall",
      "type": "error"
    },
    {
      "anonymous": false,
      "inputs": [
        {
          "indexed": false,
          "internalType": "address",
          "name": "nftAddress",
          "type": "address"
        },
        {
          "indexed": false,
          "internalType": "bool",
          "name": "allowed",
          "type": "bool"
        }
      ],
      "name": "AllowedNFTUpdated",
      "type": "event"
    },
    {
      "anonymous": false,
      "inputs": [
        {
          "indexed": false,
          "internalType": "uint256",
          "name": "loanId",
          "type": "uint256"
        },
        {
          "components": [
            {
              "internalType": "address",
              "name": "borrower",
              "type": "address"
            },
            {
              "internalType": "address",
              "name": "lender",
              "type": "address"
            },
            {
              "internalType": "address",
              "name": "nftAddress",
              "type": "address"
            },
            {
              "internalType": "uint256",
              "name": "tokenId",
              "type": "uint256"
            },
            {
              "internalType": "uint256",
              "name": "loanAmount",
              "type": "uint256"
            },
            {
              "internalType": "uint256",
              "name": "maxInterestRate",
              "type": "uint256"
            },
            {
              "internalType": "uint256",
              "name": "currentInterestRate",
              "type": "uint256"
            },
            {
              "internalType": "uint256",
              "name": "duration",
              "type": "uint256"
            },
            {
              "internalType": "uint256",
              "name": "startTime",
              "type": "uint256"
            },
            {
              "internalType": "bool",
              "name": "isAccepted",
              "type": "bool"
            }
          ],
          "indexed": false,
          "internalType": "struct NFTLendAuction.Loan",
          "name": "loan",
          "type": "tuple"
        }
      ],
      "name": "LoanAccepted",
      "type": "event"
    },
    {
      "anonymous": false,
      "inputs": [
        {
          "indexed": false,
          "internalType": "uint256",
          "name": "loanId",
          "type": "uint256"
        },
        {
          "components": [
            {
              "internalType": "address",
              "name": "borrower",
              "type": "address"
            },
            {
              "internalType": "address",
              "name": "lender",
              "type": "address"
            },
            {
              "internalType": "address",
              "name": "nftAddress",
              "type": "address"
            },
            {
              "internalType": "uint256",
              "name": "tokenId",
              "type": "uint256"
            },
            {
              "internalType": "uint256",
              "name": "loanAmount",
              "type": "uint256"
            },
            {
              "internalType": "uint256",
              "name": "maxInterestRate",
              "type": "uint256"
            },
            {
              "internalType": "uint256",
              "name": "currentInterestRate",
              "type": "uint256"
            },
            {
              "internalType": "uint256",
              "name": "duration",
              "type": "uint256"
            },
            {
              "internalType": "uint256",
              "name": "startTime",
              "type": "uint256"
            },
            {
              "internalType": "bool",
              "name": "isAccepted",
              "type": "bool"
            }
          ],
          "indexed": false,
          "internalType": "struct NFTLendAuction.Loan",
          "name": "loan",
          "type": "tuple"
        }
      ],
      "name": "LoanBidCancelled",
      "type": "event"
    },
    {
      "anonymous": false,
      "inputs": [
        {
          "indexed": false,
          "internalType": "uint256",
          "name": "loanId",
          "type": "uint256"
        },
        {
          "components": [
            {
              "internalType": "address",
              "name": "borrower",
              "type": "address"
            },
            {
              "internalType": "address",
              "name": "lender",
              "type": "address"
            },
            {
              "internalType": "address",
              "name": "nftAddress",
              "type": "address"
            },
            {
              "internalType": "uint256",
              "name": "tokenId",
              "type": "uint256"
            },
            {
              "internalType": "uint256",
              "name": "loanAmount",
              "type": "uint256"
            },
            {
              "internalType": "uint256",
              "name": "maxInterestRate",
              "type": "uint256"
            },
            {
              "internalType": "uint256",
              "name": "currentInterestRate",
              "type": "uint256"
            },
            {
              "internalType": "uint256",
              "name": "duration",
              "type": "uint256"
            },
            {
              "internalType": "uint256",
              "name": "startTime",
              "type": "uint256"
            },
            {
              "internalType": "bool",
              "name": "isAccepted",
              "type": "bool"
            }
          ],
          "indexed": false,
          "internalType": "struct NFTLendAuction.Loan",
          "name": "loan",
          "type": "tuple"
        }
      ],
      "name": "LoanBidPlaced",
      "type": "event"
    },
    {
      "anonymous": false,
      "inputs": [
        {
          "indexed": false,
          "internalType": "uint256",
          "name": "loanId",
          "type": "uint256"
        },
        {
          "components": [
            {
              "internalType": "address",
              "name": "borrower",
              "type": "address"
            },
            {
              "internalType": "address",
              "name": "lender",
              "type": "address"
            },
            {
              "internalType": "address",
              "name": "nftAddress",
              "type": "address"
            },
            {
              "internalType": "uint256",
              "name": "tokenId",
              "type": "uint256"
            },
            {
              "internalType": "uint256",
              "name": "loanAmount",
              "type": "uint256"
            },
            {
              "internalType": "uint256",
              "name": "maxInterestRate",
              "type": "uint256"
            },
            {
              "internalType": "uint256",
              "name": "currentInterestRate",
              "type": "uint256"
            },
            {
              "internalType": "uint256",
              "name": "duration",
              "type": "uint256"
            },
            {
              "internalType": "uint256",
              "name": "startTime",
              "type": "uint256"
            },
            {
              "internalType": "bool",
              "name": "isAccepted",
              "type": "bool"
            }
          ],
          "indexed": false,
          "internalType": "struct NFTLendAuction.Loan",
          "name": "loan",
          "type": "tuple"
        }
      ],
      "name": "LoanDefaulted",
      "type": "event"
    },
    {
      "anonymous": false,
      "inputs": [
        {
          "indexed": false,
          "internalType": "uint256",
          "name": "loanId",
          "type": "uint256"
        },
        {
          "components": [
            {
              "internalType": "address",
              "name": "borrower",
              "type": "address"
            },
            {
              "internalType": "address",
              "name": "lender",
              "type": "address"
            },
            {
              "internalType": "address",
              "name": "nftAddress",
              "type": "address"
            },
            {
              "internalType": "uint256",
              "name": "tokenId",
              "type": "uint256"
            },
            {
              "internalType": "uint256",
              "name": "loanAmount",
              "type": "uint256"
            },
            {
              "internalType": "uint256",
              "name": "maxInterestRate",
              "type": "uint256"
            },
            {
              "internalType": "uint256",
              "name": "currentInterestRate",
              "type": "uint256"
            },
            {
              "internalType": "uint256",
              "name": "duration",
              "type": "uint256"
            },
            {
              "internalType": "uint256",
              "name": "startTime",
              "type": "uint256"
            },
            {
              "internalType": "bool",
              "name": "isAccepted",
              "type": "bool"
            }
          ],
          "indexed": false,
          "internalType": "struct NFTLendAuction.Loan",
          "name": "loan",
          "type": "tuple"
        }
      ],
      "name": "LoanDelisted",
      "type": "event"
    },
    {
      "anonymous": false,
      "inputs": [
        {
          "indexed": false,
          "internalType": "uint256",
          "name": "loanId",
          "type": "uint256"
        },
        {
          "components": [
            {
              "internalType": "address",
              "name": "borrower",
              "type": "address"
            },
            {
              "internalType": "address",
              "name": "lender",
              "type": "address"
            },
            {
              "internalType": "address",
              "name": "nftAddress",
              "type": "address"
            },
            {
              "internalType": "uint256",
              "name": "tokenId",
              "type": "uint256"
            },
            {
              "internalType": "uint256",
              "name": "loanAmount",
              "type": "uint256"
            },
            {
              "internalType": "uint256",
              "name": "maxInterestRate",
              "type": "uint256"
            },
            {
              "internalType": "uint256",
              "name": "currentInterestRate",
              "type": "uint256"
            },
            {
              "internalType": "uint256",
              "name": "duration",
              "type": "uint256"
            },
            {
              "internalType": "uint256",
              "name": "startTime",
              "type": "uint256"
            },
            {
              "internalType": "bool",
              "name": "isAccepted",
              "type": "bool"
            }
          ],
          "indexed": false,
          "internalType": "struct NFTLendAuction.Loan",
          "name": "loan",
          "type": "tuple"
        }
      ],
      "name": "LoanListed",
      "type": "event"
    },
    {
      "anonymous": false,
      "inputs": [
        {
          "indexed": false,
          "internalType": "uint256",
          "name": "loanId",
          "type": "uint256"
        },
        {
          "components": [
            {
              "internalType": "address",
              "name": "borrower",
              "type": "address"
            },
            {
              "internalType": "address",
              "name": "lender",
              "type": "address"
            },
            {
              "internalType": "address",
              "name": "nftAddress",
              "type": "address"
            },
            {
              "internalType": "uint256",
              "name": "tokenId",
              "type": "uint256"
            },
            {
              "internalType": "uint256",
              "name": "loanAmount",
              "type": "uint256"
            },
            {
              "internalType": "uint256",
              "name": "maxInterestRate",
              "type": "uint256"
            },
            {
              "internalType": "uint256",
              "name": "currentInterestRate",
              "type": "uint256"
            },
            {
              "internalType": "uint256",
              "name": "duration",
              "type": "uint256"
            },
            {
              "internalType": "uint256",
              "name": "startTime",
              "type": "uint256"
            },
            {
              "internalType": "bool",
              "name": "isAccepted",
              "type": "bool"
            }
          ],
          "indexed": false,
          "internalType": "struct NFTLendAuction.Loan",
          "name": "loan",
          "type": "tuple"
        }
      ],
      "name": "LoanRepaid",
      "type": "event"
    },
    {
      "anonymous": false,
      "inputs": [
        {
          "indexed": true,
          "internalType": "address",
          "name": "previousOwner",
          "type": "address"
        },
        {
          "indexed": true,
          "internalType": "address",
          "name": "newOwner",
          "type": "address"
        }
      ],
      "name": "OwnershipTransferred",
      "type": "event"
    },
    {
      "anonymous": false,
      "inputs": [
        {
          "indexed": false,
          "internalType": "uint256",
          "name": "newFeeRate",
          "type": "uint256"
        }
      ],
      "name": "ProtocolFeeRateUpdated",
      "type": "event"
    },
    {
      "anonymous": false,
      "inputs": [
        {
          "indexed": false,
          "internalType": "address",
          "name": "to",
          "type": "address"
        },
        {
          "indexed": false,
          "internalType": "uint256",
          "name": "amount",
          "type": "uint256"
        }
      ],
      "name": "ProtocolFeesWithdrawn",
      "type": "event"
    },
    {
      "inputs": [
        {
          "internalType": "uint256",
          "name": "loanId",
          "type": "uint256"
        }
      ],
      "name": "acceptLoan",
      "outputs": [],
      "stateMutability": "nonpayable",
      "type": "function"
    },
    {
      "inputs": [
        {
          "internalType": "uint256",
          "name": "",
          "type": "uint256"
        }
      ],
      "name": "activeLoanIds",
      "outputs": [
        {
          "internalType": "uint256",
          "name": "",
          "type": "uint256"
        }
      ],
      "stateMutability": "view",
      "type": "function"
    },
    {
      "inputs": [
        {
          "internalType": "uint256",
          "name": "",
          "type": "uint256"
        }
      ],
      "name": "activeLoans",
      "outputs": [
        {
          "internalType": "bool",
          "name": "",
          "type": "bool"
        }
      ],
      "stateMutability": "view",
      "type": "function"
    },
    {
      "inputs": [
        {
          "internalType": "address",
          "name": "",
          "type": "address"
        }
      ],
      "name": "allowedNFTs",
      "outputs": [
        {
          "internalType": "bool",
          "name": "",
          "type": "bool"
        }
      ],
      "stateMutability": "view",
      "type": "function"
    },
    {
      "inputs": [
        {
          "internalType": "uint256",
          "name": "loanId",
          "type": "uint256"
        }
      ],
      "name": "cancelBid",
      "outputs": [],
      "stateMutability": "nonpayable",
      "type": "function"
    },
    {
      "inputs": [
        {
          "internalType": "uint256",
          "name": "loanId",
          "type": "uint256"
        }
      ],
      "name": "claimDefaultedLoan",
      "outputs": [],
      "stateMutability": "nonpayable",
      "type": "function"
    },
    {
      "inputs": [
        {
          "internalType": "uint256",
          "name": "loanId",
          "type": "uint256"
        }
      ],
      "name": "delistLoan",
      "outputs": [],
      "stateMutability": "nonpayable",
      "type": "function"
    },
    {
      "inputs": [
        {
          "internalType": "uint256",
          "name": "",
          "type": "uint256"
        }
      ],
      "name": "escrowedFunds",
      "outputs": [
        {
          "internalType": "uint256",
          "name": "",
          "type": "uint256"
        }
      ],
      "stateMutability": "view",
      "type": "function"
    },
    {
      "inputs": [],
      "name": "getActiveLoans",
      "outputs": [
        {
          "internalType": "uint256[]",
          "name": "",
          "type": "uint256[]"
        }
      ],
      "stateMutability": "view",
      "type": "function"
    },
    {
      "inputs": [
        {
          "internalType": "address",
          "name": "nftAddress",
          "type": "address"
        },
        {
          "internalType": "uint256",
          "name": "tokenId",
          "type": "uint256"
        },
        {
          "internalType": "uint256",
          "name": "loanAmount",
          "type": "uint256"
        },
        {
          "internalType": "uint256",
          "name": "maxInterestRate",
          "type": "uint256"
        },
        {
          "internalType": "uint256",
          "name": "duration",
          "type": "uint256"
        }
      ],
      "name": "listLoan",
      "outputs": [],
      "stateMutability": "nonpayable",
      "type": "function"
    },
    {
      "inputs": [],
      "name": "loanCounter",
      "outputs": [
        {
          "internalType": "uint256",
          "name": "",
          "type": "uint256"
        }
      ],
      "stateMutability": "view",
      "type": "function"
    },
    {
      "inputs": [
        {
          "internalType": "uint256",
          "name": "",
          "type": "uint256"
        }
      ],
      "name": "loans",
      "outputs": [
        {
          "internalType": "address",
          "name": "borrower",
          "type": "address"
        },
        {
          "internalType": "address",
          "name": "lender",
          "type": "address"
        },
        {
          "internalType": "address",
          "name": "nftAddress",
          "type": "address"
        },
        {
          "internalType": "uint256",
          "name": "tokenId",
          "type": "uint256"
        },
        {
          "internalType": "uint256",
          "name": "loanAmount",
          "type": "uint256"
        },
        {
          "internalType": "uint256",
          "name": "maxInterestRate",
          "type": "uint256"
        },
        {
          "internalType": "uint256",
          "name": "currentInterestRate",
          "type": "uint256"
        },
        {
          "internalType": "uint256",
          "name": "duration",
          "type": "uint256"
        },
        {
          "internalType": "uint256",
          "name": "startTime",
          "type": "uint256"
        },
        {
          "internalType": "bool",
          "name": "isAccepted",
          "type": "bool"
        }
      ],
      "stateMutability": "view",
      "type": "function"
    },
    {
      "inputs": [],
      "name": "owner",
      "outputs": [
        {
          "internalType": "address",
          "name": "",
          "type": "address"
        }
      ],
      "stateMutability": "view",
      "type": "function"
    },
    {
      "inputs": [
        {
          "internalType": "uint256",
          "name": "loanId",
          "type": "uint256"
        },
        {
          "internalType": "uint256",
          "name": "interestRate",
          "type": "uint256"
        }
      ],
      "name": "placeBid",
      "outputs": [],
      "stateMutability": "payable",
      "type": "function"
    },
    {
      "inputs": [],
      "name": "protocolFeeBalance",
      "outputs": [
        {
          "internalType": "uint256",
          "name": "",
          "type": "uint256"
        }
      ],
      "stateMutability": "view",
      "type": "function"
    },
    {
      "inputs": [],
      "name": "protocolFeeRate",
      "outputs": [
        {
          "internalType": "uint256",
          "name": "",
          "type": "uint256"
        }
      ],
      "stateMutability": "view",
      "type": "function"
    },
    {
      "inputs": [],
      "name": "renounceOwnership",
      "outputs": [],
      "stateMutability": "nonpayable",
      "type": "function"
    },
    {
      "inputs": [
        {
          "internalType": "uint256",
          "name": "loanId",
          "type": "uint256"
        }
      ],
      "name": "repayLoan",
      "outputs": [],
      "stateMutability": "payable",
      "type": "function"
    },
    {
      "inputs": [
        {
          "internalType": "uint256",
          "name": "newFeeRate",
          "type": "uint256"
        }
      ],
      "name": "setProtocolFeeRate",
      "outputs": [],
      "stateMutability": "nonpayable",
      "type": "function"
    },
    {
      "inputs": [
        {
          "internalType": "address",
          "name": "newOwner",
          "type": "address"
        }
      ],
      "name": "transferOwnership",
      "outputs": [],
      "stateMutability": "nonpayable",
      "type": "function"
    },
    {
      "inputs": [
        {
          "internalType": "address",
          "name": "nftAddress",
          "type": "address"
        },
        {
          "internalType": "bool",
          "name": "allowed",
          "type": "bool"
        }
      ],
      "name": "updateAllowedNFT",
      "outputs": [],
      "stateMutability": "nonpayable",
      "type": "function"
    },
    {
      "inputs": [
        {
          "internalType": "address payable",
          "name": "to",
          "type": "address"
        }
      ],
      "name": "withdrawProtocolFees",
      "outputs": [],
      "stateMutability": "nonpayable",
      "type": "function"
    }
  ],
  "bytecode": "0x60806040526101f460085534801561001657600080fd5b506001600055338061004257604051631e4fbdf760e01b81526000600482015260240160405180910390fd5b61004b81610051565b506100a3565b600180546001600160a01b038381166001600160a01b0319831681179093556040519116919082907f8be0079c531659141344cd1fd0a4f28419497f9722a3daafe3b4186f6b6457e090600090a35050565b611c7f806100b26000396000f3fe6080604052600436106101355760003560e01c8063715018a6116100ab578063b13aa2d61161006f578063b13aa2d614610346578063b489e14714610366578063b93186ba14610393578063deb298c3146103b3578063e1ec3c68146103d3578063f2fde38b146104ae57600080fd5b8063715018a6146102b65780638da5cb5b146102cb5780639703ef35146102f3578063ab7b1c8914610313578063adfbe22f1461032657600080fd5b80632d80caa5116100fd5780632d80caa5146102075780633360874c1461022757806334d9289e1461024757806347126f621461025d57806357c90de51461028d57806358f85880146102a057600080fd5b80630a22d68c1461013a5780630bf08ab714610163578063121ed2a71461018557806312381ec2146101a757806327f8dce3146101e7575b600080fd5b34801561014657600080fd5b5061015060095481565b6040519081526020015b60405180910390f35b34801561016f57600080fd5b5061018361017e3660046118f6565b6104ce565b005b34801561019157600080fd5b5061019a61088a565b60405161015a919061193a565b3480156101b357600080fd5b506101d76101c236600461197e565b60056020526000908152604090205460ff1681565b604051901515815260200161015a565b3480156101f357600080fd5b506101836102023660046119a2565b6108e2565b34801561021357600080fd5b5061018361022236600461197e565b610a9b565b34801561023357600080fd5b506101836102423660046119bb565b610b3a565b34801561025357600080fd5b5061015060025481565b34801561026957600080fd5b506101d76102783660046119a2565b60076020526000908152604090205460ff1681565b61018361029b3660046119f9565b610ba5565b3480156102ac57600080fd5b5061015060085481565b3480156102c257600080fd5b50610183610da6565b3480156102d757600080fd5b506001546040516001600160a01b03909116815260200161015a565b3480156102ff57600080fd5b5061018361030e3660046119a2565b610dba565b6101836103213660046119a2565b610f56565b34801561033257600080fd5b506101836103413660046119a2565b611253565b34801561035257600080fd5b506101836103613660046119a2565b611455565b34801561037257600080fd5b506101506103813660046119a2565b60046020526000908152604090205481565b34801561039f57600080fd5b506101506103ae3660046119a2565b6114de565b3480156103bf57600080fd5b506101836103ce3660046119a2565b6114ff565b3480156103df57600080fd5b506104536103ee3660046119a2565b600360208190526000918252604090912080546001820154600283015493830154600484015460058501546006860154600787015460088801546009909801546001600160a01b03978816999688169897909616969495939492939192909160ff168a565b604080516001600160a01b039b8c168152998b1660208b015297909916968801969096526060870194909452608086019290925260a085015260c084015260e08301526101008201529015156101208201526101400161015a565b3480156104ba57600080fd5b506101836104c936600461197e565b611731565b6104d661176c565b6001600160a01b038516600090815260056020526040902054859060ff166105455760405162461bcd60e51b815260206004820152601860248201527f4e465420636f6e7472616374206e6f7420616c6c6f776564000000000000000060448201526064015b60405180910390fd5b6040516331a9108f60e11b81526004810186905233906001600160a01b03881690636352211e90602401602060405180830381865afa15801561058c573d6000803e3d6000fd5b505050506040513d601f19601f820116820180604052508101906105b09190611a1b565b6001600160a01b0316146105f65760405162461bcd60e51b815260206004820152600d60248201526c2737ba1027232a1037bbb732b960991b604482015260640161053c565b6040516323b872dd60e01b81526001600160a01b038716906323b872dd9061062690339030908a90600401611a38565b600060405180830381600087803b15801561064057600080fd5b505af1158015610654573d6000803e3d6000fd5b50505050604051806101400160405280336001600160a01b0316815260200160006001600160a01b03168152602001876001600160a01b03168152602001868152602001858152602001848152602001848152602001838152602001600081526020016000151581525060036000600254815260200190815260200160002060008201518160000160006101000a8154816001600160a01b0302191690836001600160a01b0316021790555060208201518160010160006101000a8154816001600160a01b0302191690836001600160a01b0316021790555060408201518160020160006101000a8154816001600160a01b0302191690836001600160a01b03160217905550606082015181600301556080820151816004015560a0820151816005015560c0820151816006015560e0820151816007015561010082015181600801556101208201518160090160006101000a81548160ff021916908315150217905550905050600160076000600254815260200190815260200160002060006101000a81548160ff021916908315150217905550600660025490806001815401808255809150506001900390600052602060002001600090919091909150557fa1245a80903048d748a2cbd2d90c4e25d716e52ebe400f5d87e3cb233dbb156460025460036000600254815260200190815260200160002060405161085b929190611aed565b60405180910390a16002805490600061087383611b18565b9190505550506108836001600055565b5050505050565b606060068054806020026020016040519081016040528092919081815260200182805480156108d857602002820191906000526020600020905b8154815260200190600101908083116108c4575b5050505050905090565b6108ea61176c565b60008181526003602052604090205481906001600160a01b03166109205760405162461bcd60e51b815260040161053c90611b31565b6000828152600360205260409020600981015460ff166109765760405162461bcd60e51b8152602060048201526011602482015270131bd85b881b9bdd081858d8d95c1d1959607a1b604482015260640161053c565b8060070154816008015461098a9190611b5e565b42116109cb5760405162461bcd60e51b815260206004820152601060248201526f131bd85b881b9bdd08195e1c1a5c995960821b604482015260640161053c565b60098101805460ff191690556002810154600182015460038301546040516323b872dd60e01b81526001600160a01b03938416936323b872dd93610a189330939290911691600401611a38565b600060405180830381600087803b158015610a3257600080fd5b505af1158015610a46573d6000803e3d6000fd5b505050507f09ee0d7b0b1598c76069a7aef742246a5889c7b18a88528c69ea7ddd016143de8382604051610a7b929190611aed565b60405180910390a1610a8c83611796565b5050610a986001600055565b50565b610aa3611862565b610aab61176c565b6009805460009182905560405190916001600160a01b0384169183156108fc0291849190818181858888f19350505050158015610aec573d6000803e3d6000fd5b50604080516001600160a01b0384168152602081018390527fa087657e3d85162090ffd700fbfdf5070d816f63aa5da00063f6ffd369c8a6db910160405180910390a150610a986001600055565b610b42611862565b6001600160a01b038216600081815260056020908152604091829020805460ff19168515159081179091558251938452908301527f7fe996db267f9f17db8865f67d54879fc39a38a2a37afa158a9ea52357e794ac910160405180910390a15050565b610bad61176c565b60008281526003602052604090205482906001600160a01b0316610be35760405162461bcd60e51b815260040161053c90611b31565b600083815260036020526040902060090154839060ff1615610c175760405162461bcd60e51b815260040161053c90611b77565b6000848152600360205260409020600681015484108015610c3c575080600501548411155b610c885760405162461bcd60e51b815260206004820152601960248201527f42696420696e746572657374207261746520696e76616c696400000000000000604482015260640161053c565b80600401543414610cd35760405162461bcd60e51b8152602060048201526015602482015274125b98dbdc9c9958dd081b1bd85b88185b5bdd5b9d605a1b604482015260640161053c565b60018101546001600160a01b031615610d2f5760018101546000868152600460205260408082205490516001600160a01b039093169281156108fc0292818181858888f19350505050158015610d2d573d6000803e3d6000fd5b505b6001810180546001600160a01b031916331790556006810184905560008581526004602052604090819020349055517fe764baaf34b59b9c06a91d4c9be06e4168895472a16538801fa1256d8356060890610d8d9087908490611aed565b60405180910390a1505050610da26001600055565b5050565b610dae611862565b610db8600061188f565b565b610dc261176c565b60008181526003602052604090205481906001600160a01b0316610df85760405162461bcd60e51b815260040161053c90611b31565b600082815260036020526040902060090154829060ff1615610e2c5760405162461bcd60e51b815260040161053c90611b77565b600083815260036020526040902060018101546001600160a01b03163314610ea15760405162461bcd60e51b815260206004820152602260248201527f4f6e6c7920746865206c656e6465722063616e2063616e63656c2074686520626044820152611a5960f21b606482015260840161053c565b6000848152600460205260408082208054908390556001840154915190926001600160a01b039092169183156108fc02918491818181858888f19350505050158015610ef1573d6000803e3d6000fd5b506001820180546001600160a01b0319169055600582015460068301556040517f3f74c0d4fffdd06ee27213c74a0ea5df0a69bd1da7260ee6ce5edc0733ec66ba90610f409087908590611aed565b60405180910390a150505050610a986001600055565b610f5e61176c565b60008181526003602052604090205481906001600160a01b0316610f945760405162461bcd60e51b815260040161053c90611b31565b60008281526003602052604090205482906001600160a01b03163314610fcc5760405162461bcd60e51b815260040161053c90611ba6565b6000838152600360205260409020600981015460ff166110265760405162461bcd60e51b8152602060048201526015602482015274131bd85b881b9bdd081858d8d95c1d1959081e595d605a1b604482015260640161053c565b8060070154816008015461103a9190611b5e565b4211156110815760405162461bcd60e51b8152602060048201526015602482015274131bd85b88191d5c985d1a5bdb88195e1c1a5c9959605a1b604482015260640161053c565b60006127108260060154836004015461109a9190611bd1565b6110a49190611be8565b82600401546110b39190611b5e565b90508034146111045760405162461bcd60e51b815260206004820152601a60248201527f496e636f72726563742072657061796d656e7420616d6f756e74000000000000604482015260640161053c565b6000612710600854836111179190611bd1565b6111219190611be8565b9050600061112f8284611c0a565b905081600960008282546111439190611b5e565b909155505060098401805460ff191690556002840154845460038601546040516323b872dd60e01b81526001600160a01b03938416936323b872dd936111929330939290911691600401611a38565b600060405180830381600087803b1580156111ac57600080fd5b505af11580156111c0573d6000803e3d6000fd5b50505060018501546040516001600160a01b03909116915082156108fc029083906000818181858888f19350505050158015611200573d6000803e3d6000fd5b507f4fe420b451ac5011d50b1235ef68ba00aeac1fb98e4572723d3ff73c5a77544d8785604051611232929190611aed565b60405180910390a161124387611796565b505050505050610a986001600055565b61125b61176c565b60008181526003602052604090205481906001600160a01b03166112915760405162461bcd60e51b815260040161053c90611b31565b600082815260036020526040902060090154829060ff16156112c55760405162461bcd60e51b815260040161053c90611b77565b60008381526003602052604090205483906001600160a01b031633146112fd5760405162461bcd60e51b815260040161053c90611ba6565b600084815260036020526040902060018101546001600160a01b03166113595760405162461bcd60e51b8152602060048201526011602482015270139bc81b195b99195c88189a59081e595d607a1b604482015260640161053c565b60098101805460ff19166001179055426008808301919091556000868152600460205260408120549154612710906113919084611bd1565b61139b9190611be8565b905060006113a98284611c0a565b905081600960008282546113bd9190611b5e565b9091555050600088815260046020526040808220829055855490516001600160a01b039091169183156108fc02918491818181858888f1935050505015801561140a573d6000803e3d6000fd5b507f1b7ba30a29ab5ed2d8ed3665b0bed8bf297e83883b7b000f267c5590511c488c888560405161143c929190611aed565b60405180910390a150505050505050610a986001600055565b61145d611862565b6103e88111156114a35760405162461bcd60e51b815260206004820152601160248201527008ccaca40e4c2e8ca40e8dede40d0d2ced607b1b604482015260640161053c565b60088190556040518181527f9d2a5010795914ccbdd5a4cdee6a9aa2addac5e44443b519897523b67ddfe9fc9060200160405180910390a150565b600681815481106114ee57600080fd5b600091825260209091200154905081565b61150761176c565b60008181526003602052604090205481906001600160a01b031661153d5760405162461bcd60e51b815260040161053c90611b31565b600082815260036020526040902060090154829060ff16156115715760405162461bcd60e51b815260040161053c90611b77565b60008381526003602052604090205483906001600160a01b031633146115a95760405162461bcd60e51b815260040161053c90611ba6565b600084815260036020526040902060018101546001600160a01b03161561161d576000858152600460205260408082208054908390556001840154915190926001600160a01b039092169183156108fc02918491818181858888f1935050505015801561161a573d6000803e3d6000fd5b50505b6002810154815460038301546040516323b872dd60e01b81526001600160a01b03938416936323b872dd9361165b9330939290911691600401611a38565b600060405180830381600087803b15801561167557600080fd5b505af1158015611689573d6000803e3d6000fd5b5050506000868152600360208190526040822080546001600160a01b03199081168255600182018054821690556002820180549091169055908101829055600481018290556005810182905560068101829055600781018290556008810191909155600901805460ff191690555061170085611796565b7f9962ecc38361b4460de4f01702f2a85a431a9c4cfde122c42a438ba50f9fdd928582604051610f40929190611aed565b611739611862565b6001600160a01b03811661176357604051631e4fbdf760e01b81526000600482015260240161053c565b610a988161188f565b60026000540361178f57604051633ee5aeb560e01b815260040160405180910390fd5b6002600055565b6000818152600760205260408120805460ff191690555b600654811015610da25781600682815481106117cb576117cb611c1d565b90600052602060002001540361185057600680546117eb90600190611c0a565b815481106117fb576117fb611c1d565b90600052602060002001546006828154811061181957611819611c1d565b600091825260209091200155600680548061183657611836611c33565b600190038181906000526020600020016000905590555050565b8061185a81611b18565b9150506117ad565b6001546001600160a01b03163314610db85760405163118cdaa760e01b815233600482015260240161053c565b600180546001600160a01b038381166001600160a01b0319831681179093556040519116919082907f8be0079c531659141344cd1fd0a4f28419497f9722a3daafe3b4186f6b6457e090600090a35050565b6001600160a01b0381168114610a9857600080fd5b600080600080600060a0868803121561190e57600080fd5b8535611919816118e1565b97602087013597506040870135966060810135965060800135945092505050565b6020808252825182820181905260009190848201906040850190845b8181101561197257835183529284019291840191600101611956565b50909695505050505050565b60006020828403121561199057600080fd5b813561199b816118e1565b9392505050565b6000602082840312156119b457600080fd5b5035919050565b600080604083850312156119ce57600080fd5b82356119d9816118e1565b9150602083013580151581146119ee57600080fd5b809150509250929050565b60008060408385031215611a0c57600080fd5b50508035926020909101359150565b600060208284031215611a2d57600080fd5b815161199b816118e1565b6001600160a01b039384168152919092166020820152604081019190915260600190565b611a7e82611a7183546001600160a01b031690565b6001600160a01b03169052565b60018101546001600160a01b03908116602084015260028201541660408301526003810154606083015260048101546080830152600581015460a0830152600681015460c0830152600781015460e083015260088101546101008301526009015460ff16151561012090910152565b828152610160810161199b6020830184611a5c565b634e487b7160e01b600052601160045260246000fd5b600060018201611b2a57611b2a611b02565b5060010190565b602080825260139082015272131bd85b88191bd95cc81b9bdd08195e1a5cdd606a1b604082015260600190565b80820180821115611b7157611b71611b02565b92915050565b602080825260159082015274131bd85b88185b1c9958591e481858d8d95c1d1959605a1b604082015260600190565b6020808252601190820152702737ba103637b0b7103137b93937bbb2b960791b604082015260600190565b8082028115828204841417611b7157611b71611b02565b600082611c0557634e487b7160e01b600052601260045260246000fd5b500490565b81810381811115611b7157611b71611b02565b634e487b7160e01b600052603260045260246000fd5b634e487b7160e01b600052603160045260246000fdfea264697066735822122095a2dc946fd2d8dbae759bbda5f8af9a98a1dd6c305a3d74c53ea50279248a1864736f6c63430008140033",
  "linkReferences": {},
  "deployedLinkReferences": {}
}