{
  "_format": "hh-sol-artifact-1",
  "contractName": "NFTLendAuction",
  "sourceName": "contracts/NFTLendAuction.sol",
  "abi": [
    {
      "inputs": [],
      "stateMutability": "nonpayable",
      "type": "constructor"
    },
    {
      "inputs": [
        {
          "internalType": "address",
          "name": "owner",
          "type": "address"
        }
      ],
      "name": "OwnableInvalidOwner",
      "type": "error"
    },
    {
      "inputs": [
        {
          "internalType": "address",
          "name": "account",
          "type": "address"
        }
      ],
      "name": "OwnableUnauthorizedAccount",
      "type": "error"
    },
    {
      "inputs": [],
      "name": "ReentrancyGuardReentrantCall",
      "type": "error"
    },
    {
      "anonymous": false,
      "inputs": [
        {
          "indexed": false,
          "internalType": "address",
          "name": "nftAddress",
          "type": "address"
        },
        {
          "indexed": false,
          "internalType": "bool",
          "name": "allowed",
          "type": "bool"
        }
      ],
      "name": "AllowedNFTUpdated",
      "type": "event"
    },
    {
      "anonymous": false,
      "inputs": [
        {
          "indexed": false,
          "internalType": "uint256",
          "name": "loanId",
          "type": "uint256"
        },
        {
          "components": [
            {
              "internalType": "address",
              "name": "borrower",
              "type": "address"
            },
            {
              "internalType": "address",
              "name": "lender",
              "type": "address"
            },
            {
              "internalType": "address",
              "name": "nftAddress",
              "type": "address"
            },
            {
              "internalType": "uint256",
              "name": "tokenId",
              "type": "uint256"
            },
            {
              "internalType": "uint256",
              "name": "loanAmount",
              "type": "uint256"
            },
            {
              "internalType": "uint256",
              "name": "maxInterestRate",
              "type": "uint256"
            },
            {
              "internalType": "uint256",
              "name": "currentInterestRate",
              "type": "uint256"
            },
            {
              "internalType": "uint256",
              "name": "duration",
              "type": "uint256"
            },
            {
              "internalType": "uint256",
              "name": "startTime",
              "type": "uint256"
            },
            {
              "internalType": "bool",
              "name": "isAccepted",
              "type": "bool"
            }
          ],
          "indexed": false,
          "internalType": "struct NFTLendAuction.Loan",
          "name": "loan",
          "type": "tuple"
        }
      ],
      "name": "LoanAccepted",
      "type": "event"
    },
    {
      "anonymous": false,
      "inputs": [
        {
          "indexed": false,
          "internalType": "uint256",
          "name": "loanId",
          "type": "uint256"
        },
        {
          "components": [
            {
              "internalType": "address",
              "name": "borrower",
              "type": "address"
            },
            {
              "internalType": "address",
              "name": "lender",
              "type": "address"
            },
            {
              "internalType": "address",
              "name": "nftAddress",
              "type": "address"
            },
            {
              "internalType": "uint256",
              "name": "tokenId",
              "type": "uint256"
            },
            {
              "internalType": "uint256",
              "name": "loanAmount",
              "type": "uint256"
            },
            {
              "internalType": "uint256",
              "name": "maxInterestRate",
              "type": "uint256"
            },
            {
              "internalType": "uint256",
              "name": "currentInterestRate",
              "type": "uint256"
            },
            {
              "internalType": "uint256",
              "name": "duration",
              "type": "uint256"
            },
            {
              "internalType": "uint256",
              "name": "startTime",
              "type": "uint256"
            },
            {
              "internalType": "bool",
              "name": "isAccepted",
              "type": "bool"
            }
          ],
          "indexed": false,
          "internalType": "struct NFTLendAuction.Loan",
          "name": "loan",
          "type": "tuple"
        }
      ],
      "name": "LoanBidCancelled",
      "type": "event"
    },
    {
      "anonymous": false,
      "inputs": [
        {
          "indexed": false,
          "internalType": "uint256",
          "name": "loanId",
          "type": "uint256"
        },
        {
          "components": [
            {
              "internalType": "address",
              "name": "borrower",
              "type": "address"
            },
            {
              "internalType": "address",
              "name": "lender",
              "type": "address"
            },
            {
              "internalType": "address",
              "name": "nftAddress",
              "type": "address"
            },
            {
              "internalType": "uint256",
              "name": "tokenId",
              "type": "uint256"
            },
            {
              "internalType": "uint256",
              "name": "loanAmount",
              "type": "uint256"
            },
            {
              "internalType": "uint256",
              "name": "maxInterestRate",
              "type": "uint256"
            },
            {
              "internalType": "uint256",
              "name": "currentInterestRate",
              "type": "uint256"
            },
            {
              "internalType": "uint256",
              "name": "duration",
              "type": "uint256"
            },
            {
              "internalType": "uint256",
              "name": "startTime",
              "type": "uint256"
            },
            {
              "internalType": "bool",
              "name": "isAccepted",
              "type": "bool"
            }
          ],
          "indexed": false,
          "internalType": "struct NFTLendAuction.Loan",
          "name": "loan",
          "type": "tuple"
        }
      ],
      "name": "LoanBidPlaced",
      "type": "event"
    },
    {
      "anonymous": false,
      "inputs": [
        {
          "indexed": false,
          "internalType": "uint256",
          "name": "loanId",
          "type": "uint256"
        },
        {
          "components": [
            {
              "internalType": "address",
              "name": "borrower",
              "type": "address"
            },
            {
              "internalType": "address",
              "name": "lender",
              "type": "address"
            },
            {
              "internalType": "address",
              "name": "nftAddress",
              "type": "address"
            },
            {
              "internalType": "uint256",
              "name": "tokenId",
              "type": "uint256"
            },
            {
              "internalType": "uint256",
              "name": "loanAmount",
              "type": "uint256"
            },
            {
              "internalType": "uint256",
              "name": "maxInterestRate",
              "type": "uint256"
            },
            {
              "internalType": "uint256",
              "name": "currentInterestRate",
              "type": "uint256"
            },
            {
              "internalType": "uint256",
              "name": "duration",
              "type": "uint256"
            },
            {
              "internalType": "uint256",
              "name": "startTime",
              "type": "uint256"
            },
            {
              "internalType": "bool",
              "name": "isAccepted",
              "type": "bool"
            }
          ],
          "indexed": false,
          "internalType": "struct NFTLendAuction.Loan",
          "name": "loan",
          "type": "tuple"
        }
      ],
      "name": "LoanDefaulted",
      "type": "event"
    },
    {
      "anonymous": false,
      "inputs": [
        {
          "indexed": false,
          "internalType": "uint256",
          "name": "loanId",
          "type": "uint256"
        },
        {
          "components": [
            {
              "internalType": "address",
              "name": "borrower",
              "type": "address"
            },
            {
              "internalType": "address",
              "name": "lender",
              "type": "address"
            },
            {
              "internalType": "address",
              "name": "nftAddress",
              "type": "address"
            },
            {
              "internalType": "uint256",
              "name": "tokenId",
              "type": "uint256"
            },
            {
              "internalType": "uint256",
              "name": "loanAmount",
              "type": "uint256"
            },
            {
              "internalType": "uint256",
              "name": "maxInterestRate",
              "type": "uint256"
            },
            {
              "internalType": "uint256",
              "name": "currentInterestRate",
              "type": "uint256"
            },
            {
              "internalType": "uint256",
              "name": "duration",
              "type": "uint256"
            },
            {
              "internalType": "uint256",
              "name": "startTime",
              "type": "uint256"
            },
            {
              "internalType": "bool",
              "name": "isAccepted",
              "type": "bool"
            }
          ],
          "indexed": false,
          "internalType": "struct NFTLendAuction.Loan",
          "name": "loan",
          "type": "tuple"
        }
      ],
      "name": "LoanDelisted",
      "type": "event"
    },
    {
      "anonymous": false,
      "inputs": [
        {
          "indexed": false,
          "internalType": "uint256",
          "name": "loanId",
          "type": "uint256"
        },
        {
          "components": [
            {
              "internalType": "address",
              "name": "borrower",
              "type": "address"
            },
            {
              "internalType": "address",
              "name": "lender",
              "type": "address"
            },
            {
              "internalType": "address",
              "name": "nftAddress",
              "type": "address"
            },
            {
              "internalType": "uint256",
              "name": "tokenId",
              "type": "uint256"
            },
            {
              "internalType": "uint256",
              "name": "loanAmount",
              "type": "uint256"
            },
            {
              "internalType": "uint256",
              "name": "maxInterestRate",
              "type": "uint256"
            },
            {
              "internalType": "uint256",
              "name": "currentInterestRate",
              "type": "uint256"
            },
            {
              "internalType": "uint256",
              "name": "duration",
              "type": "uint256"
            },
            {
              "internalType": "uint256",
              "name": "startTime",
              "type": "uint256"
            },
            {
              "internalType": "bool",
              "name": "isAccepted",
              "type": "bool"
            }
          ],
          "indexed": false,
          "internalType": "struct NFTLendAuction.Loan",
          "name": "loan",
          "type": "tuple"
        }
      ],
      "name": "LoanListed",
      "type": "event"
    },
    {
      "anonymous": false,
      "inputs": [
        {
          "indexed": false,
          "internalType": "uint256",
          "name": "loanId",
          "type": "uint256"
        },
        {
          "components": [
            {
              "internalType": "address",
              "name": "borrower",
              "type": "address"
            },
            {
              "internalType": "address",
              "name": "lender",
              "type": "address"
            },
            {
              "internalType": "address",
              "name": "nftAddress",
              "type": "address"
            },
            {
              "internalType": "uint256",
              "name": "tokenId",
              "type": "uint256"
            },
            {
              "internalType": "uint256",
              "name": "loanAmount",
              "type": "uint256"
            },
            {
              "internalType": "uint256",
              "name": "maxInterestRate",
              "type": "uint256"
            },
            {
              "internalType": "uint256",
              "name": "currentInterestRate",
              "type": "uint256"
            },
            {
              "internalType": "uint256",
              "name": "duration",
              "type": "uint256"
            },
            {
              "internalType": "uint256",
              "name": "startTime",
              "type": "uint256"
            },
            {
              "internalType": "bool",
              "name": "isAccepted",
              "type": "bool"
            }
          ],
          "indexed": false,
          "internalType": "struct NFTLendAuction.Loan",
          "name": "loan",
          "type": "tuple"
        }
      ],
      "name": "LoanRepaid",
      "type": "event"
    },
    {
      "anonymous": false,
      "inputs": [
        {
          "indexed": true,
          "internalType": "address",
          "name": "previousOwner",
          "type": "address"
        },
        {
          "indexed": true,
          "internalType": "address",
          "name": "newOwner",
          "type": "address"
        }
      ],
      "name": "OwnershipTransferred",
      "type": "event"
    },
    {
      "anonymous": false,
      "inputs": [
        {
          "indexed": false,
          "internalType": "uint256",
          "name": "newFeeRate",
          "type": "uint256"
        }
      ],
      "name": "ProtocolFeeRateUpdated",
      "type": "event"
    },
    {
      "anonymous": false,
      "inputs": [
        {
          "indexed": false,
          "internalType": "address",
          "name": "to",
          "type": "address"
        },
        {
          "indexed": false,
          "internalType": "uint256",
          "name": "amount",
          "type": "uint256"
        }
      ],
      "name": "ProtocolFeesWithdrawn",
      "type": "event"
    },
    {
      "inputs": [
        {
          "internalType": "uint256",
          "name": "loanId",
          "type": "uint256"
        }
      ],
      "name": "acceptLoan",
      "outputs": [],
      "stateMutability": "nonpayable",
      "type": "function"
    },
    {
      "inputs": [
        {
          "internalType": "uint256",
          "name": "",
          "type": "uint256"
        }
      ],
      "name": "activeLoanIds",
      "outputs": [
        {
          "internalType": "uint256",
          "name": "",
          "type": "uint256"
        }
      ],
      "stateMutability": "view",
      "type": "function"
    },
    {
      "inputs": [
        {
          "internalType": "uint256",
          "name": "",
          "type": "uint256"
        }
      ],
      "name": "activeLoans",
      "outputs": [
        {
          "internalType": "bool",
          "name": "",
          "type": "bool"
        }
      ],
      "stateMutability": "view",
      "type": "function"
    },
    {
      "inputs": [
        {
          "internalType": "address",
          "name": "",
          "type": "address"
        }
      ],
      "name": "allowedNFTs",
      "outputs": [
        {
          "internalType": "bool",
          "name": "",
          "type": "bool"
        }
      ],
      "stateMutability": "view",
      "type": "function"
    },
    {
      "inputs": [
        {
          "internalType": "uint256",
          "name": "loanId",
          "type": "uint256"
        }
      ],
      "name": "cancelBid",
      "outputs": [],
      "stateMutability": "nonpayable",
      "type": "function"
    },
    {
      "inputs": [
        {
          "internalType": "uint256",
          "name": "loanId",
          "type": "uint256"
        }
      ],
      "name": "claimDefaultedLoan",
      "outputs": [],
      "stateMutability": "payable",
      "type": "function"
    },
    {
      "inputs": [
        {
          "internalType": "uint256",
          "name": "loanId",
          "type": "uint256"
        }
      ],
      "name": "delistLoan",
      "outputs": [],
      "stateMutability": "nonpayable",
      "type": "function"
    },
    {
      "inputs": [
        {
          "internalType": "uint256",
          "name": "",
          "type": "uint256"
        }
      ],
      "name": "escrowedFunds",
      "outputs": [
        {
          "internalType": "uint256",
          "name": "",
          "type": "uint256"
        }
      ],
      "stateMutability": "view",
      "type": "function"
    },
    {
      "inputs": [],
      "name": "getActiveLoans",
      "outputs": [
        {
          "internalType": "uint256[]",
          "name": "",
          "type": "uint256[]"
        }
      ],
      "stateMutability": "view",
      "type": "function"
    },
    {
      "inputs": [
        {
          "internalType": "uint256",
          "name": "loanId",
          "type": "uint256"
        }
      ],
      "name": "getRequiredRepayment",
      "outputs": [
        {
          "internalType": "uint256",
          "name": "",
          "type": "uint256"
        }
      ],
      "stateMutability": "view",
      "type": "function"
    },
    {
      "inputs": [
        {
          "internalType": "address",
          "name": "nftAddress",
          "type": "address"
        },
        {
          "internalType": "uint256",
          "name": "tokenId",
          "type": "uint256"
        },
        {
          "internalType": "uint256",
          "name": "loanAmount",
          "type": "uint256"
        },
        {
          "internalType": "uint256",
          "name": "maxInterestRate",
          "type": "uint256"
        },
        {
          "internalType": "uint256",
          "name": "duration",
          "type": "uint256"
        }
      ],
      "name": "listLoan",
      "outputs": [],
      "stateMutability": "nonpayable",
      "type": "function"
    },
    {
      "inputs": [],
      "name": "loanCounter",
      "outputs": [
        {
          "internalType": "uint256",
          "name": "",
          "type": "uint256"
        }
      ],
      "stateMutability": "view",
      "type": "function"
    },
    {
      "inputs": [
        {
          "internalType": "uint256",
          "name": "",
          "type": "uint256"
        }
      ],
      "name": "loans",
      "outputs": [
        {
          "internalType": "address",
          "name": "borrower",
          "type": "address"
        },
        {
          "internalType": "address",
          "name": "lender",
          "type": "address"
        },
        {
          "internalType": "address",
          "name": "nftAddress",
          "type": "address"
        },
        {
          "internalType": "uint256",
          "name": "tokenId",
          "type": "uint256"
        },
        {
          "internalType": "uint256",
          "name": "loanAmount",
          "type": "uint256"
        },
        {
          "internalType": "uint256",
          "name": "maxInterestRate",
          "type": "uint256"
        },
        {
          "internalType": "uint256",
          "name": "currentInterestRate",
          "type": "uint256"
        },
        {
          "internalType": "uint256",
          "name": "duration",
          "type": "uint256"
        },
        {
          "internalType": "uint256",
          "name": "startTime",
          "type": "uint256"
        },
        {
          "internalType": "bool",
          "name": "isAccepted",
          "type": "bool"
        }
      ],
      "stateMutability": "view",
      "type": "function"
    },
    {
      "inputs": [],
      "name": "owner",
      "outputs": [
        {
          "internalType": "address",
          "name": "",
          "type": "address"
        }
      ],
      "stateMutability": "view",
      "type": "function"
    },
    {
      "inputs": [
        {
          "internalType": "uint256",
          "name": "loanId",
          "type": "uint256"
        },
        {
          "internalType": "uint256",
          "name": "interestRate",
          "type": "uint256"
        }
      ],
      "name": "placeBid",
      "outputs": [],
      "stateMutability": "payable",
      "type": "function"
    },
    {
      "inputs": [],
      "name": "protocolFeeBalance",
      "outputs": [
        {
          "internalType": "uint256",
          "name": "",
          "type": "uint256"
        }
      ],
      "stateMutability": "view",
      "type": "function"
    },
    {
      "inputs": [],
      "name": "protocolFeeRate",
      "outputs": [
        {
          "internalType": "uint256",
          "name": "",
          "type": "uint256"
        }
      ],
      "stateMutability": "view",
      "type": "function"
    },
    {
      "inputs": [],
      "name": "renounceOwnership",
      "outputs": [],
      "stateMutability": "nonpayable",
      "type": "function"
    },
    {
      "inputs": [
        {
          "internalType": "uint256",
          "name": "loanId",
          "type": "uint256"
        }
      ],
      "name": "repayLoan",
      "outputs": [],
      "stateMutability": "payable",
      "type": "function"
    },
    {
      "inputs": [
        {
          "internalType": "uint256",
          "name": "newFeeRate",
          "type": "uint256"
        }
      ],
      "name": "setProtocolFeeRate",
      "outputs": [],
      "stateMutability": "nonpayable",
      "type": "function"
    },
    {
      "inputs": [
        {
          "internalType": "address",
          "name": "newOwner",
          "type": "address"
        }
      ],
      "name": "transferOwnership",
      "outputs": [],
      "stateMutability": "nonpayable",
      "type": "function"
    },
    {
      "inputs": [
        {
          "internalType": "address",
          "name": "nftAddress",
          "type": "address"
        },
        {
          "internalType": "bool",
          "name": "allowed",
          "type": "bool"
        }
      ],
      "name": "updateAllowedNFT",
      "outputs": [],
      "stateMutability": "nonpayable",
      "type": "function"
    },
    {
      "inputs": [
        {
          "internalType": "address payable",
          "name": "to",
          "type": "address"
        }
      ],
      "name": "withdrawProtocolFees",
      "outputs": [],
      "stateMutability": "nonpayable",
      "type": "function"
    }
  ],
  "bytecode": "0x608060405260c860085534801561001557600080fd5b506001600055338061004157604051631e4fbdf760e01b81526000600482015260240160405180910390fd5b61004a81610050565b506100a2565b600180546001600160a01b038381166001600160a01b0319831681179093556040519116919082907f8be0079c531659141344cd1fd0a4f28419497f9722a3daafe3b4186f6b6457e090600090a35050565b611e47806100b16000396000f3fe6080604052600436106101405760003560e01c8063715018a6116100b6578063b489e1471161006f578063b489e14714610364578063b93186ba14610391578063deb298c3146103b1578063e1ec3c68146103d1578063e628cf27146104ac578063f2fde38b146104cc57600080fd5b8063715018a6146102b45780638da5cb5b146102c95780639703ef35146102f1578063ab7b1c8914610311578063adfbe22f14610324578063b13aa2d61461034457600080fd5b80632d80caa5116101085780632d80caa5146102055780633360874c1461022557806334d9289e1461024557806347126f621461025b57806357c90de51461028b57806358f858801461029e57600080fd5b80630a22d68c146101455780630bf08ab71461016e578063121ed2a71461019057806312381ec2146101b257806327f8dce3146101f2575b600080fd5b34801561015157600080fd5b5061015b60095481565b6040519081526020015b60405180910390f35b34801561017a57600080fd5b5061018e610189366004611abe565b6104ec565b005b34801561019c57600080fd5b506101a56108a8565b6040516101659190611b02565b3480156101be57600080fd5b506101e26101cd366004611b46565b60056020526000908152604090205460ff1681565b6040519015158152602001610165565b61018e610200366004611b6a565b610900565b34801561021157600080fd5b5061018e610220366004611b46565b610b7a565b34801561023157600080fd5b5061018e610240366004611b83565b610c19565b34801561025157600080fd5b5061015b60025481565b34801561026757600080fd5b506101e2610276366004611b6a565b60076020526000908152604090205460ff1681565b61018e610299366004611bc1565b610c84565b3480156102aa57600080fd5b5061015b60085481565b3480156102c057600080fd5b5061018e610e85565b3480156102d557600080fd5b506001546040516001600160a01b039091168152602001610165565b3480156102fd57600080fd5b5061018e61030c366004611b6a565b610e99565b61018e61031f366004611b6a565b611035565b34801561033057600080fd5b5061018e61033f366004611b6a565b61136f565b34801561035057600080fd5b5061018e61035f366004611b6a565b611520565b34801561037057600080fd5b5061015b61037f366004611b6a565b60046020526000908152604090205481565b34801561039d57600080fd5b5061015b6103ac366004611b6a565b6115a9565b3480156103bd57600080fd5b5061018e6103cc366004611b6a565b6115ca565b3480156103dd57600080fd5b506104516103ec366004611b6a565b600360208190526000918252604090912080546001820154600283015493830154600484015460058501546006860154600787015460088801546009909801546001600160a01b03978816999688169897909616969495939492939192909160ff168a565b604080516001600160a01b039b8c168152998b1660208b015297909916968801969096526060870194909452608086019290925260a085015260c084015260e083015261010082015290151561012082015261014001610165565b3480156104b857600080fd5b5061015b6104c7366004611b6a565b6117fc565b3480156104d857600080fd5b5061018e6104e7366004611b46565b6118f9565b6104f4611934565b6001600160a01b038516600090815260056020526040902054859060ff166105635760405162461bcd60e51b815260206004820152601860248201527f4e465420636f6e7472616374206e6f7420616c6c6f776564000000000000000060448201526064015b60405180910390fd5b6040516331a9108f60e11b81526004810186905233906001600160a01b03881690636352211e90602401602060405180830381865afa1580156105aa573d6000803e3d6000fd5b505050506040513d601f19601f820116820180604052508101906105ce9190611be3565b6001600160a01b0316146106145760405162461bcd60e51b815260206004820152600d60248201526c2737ba1027232a1037bbb732b960991b604482015260640161055a565b6040516323b872dd60e01b81526001600160a01b038716906323b872dd9061064490339030908a90600401611c00565b600060405180830381600087803b15801561065e57600080fd5b505af1158015610672573d6000803e3d6000fd5b50505050604051806101400160405280336001600160a01b0316815260200160006001600160a01b03168152602001876001600160a01b03168152602001868152602001858152602001848152602001848152602001838152602001600081526020016000151581525060036000600254815260200190815260200160002060008201518160000160006101000a8154816001600160a01b0302191690836001600160a01b0316021790555060208201518160010160006101000a8154816001600160a01b0302191690836001600160a01b0316021790555060408201518160020160006101000a8154816001600160a01b0302191690836001600160a01b03160217905550606082015181600301556080820151816004015560a0820151816005015560c0820151816006015560e0820151816007015561010082015181600801556101208201518160090160006101000a81548160ff021916908315150217905550905050600160076000600254815260200190815260200160002060006101000a81548160ff021916908315150217905550600660025490806001815401808255809150506001900390600052602060002001600090919091909150557fa1245a80903048d748a2cbd2d90c4e25d716e52ebe400f5d87e3cb233dbb1564600254600360006002548152602001908152602001600020604051610879929190611cb5565b60405180910390a16002805490600061089183611ce0565b9190505550506108a16001600055565b5050505050565b606060068054806020026020016040519081016040528092919081815260200182805480156108f657602002820191906000526020600020905b8154815260200190600101908083116108e2575b5050505050905090565b610908611934565b60008181526003602052604090205481906001600160a01b031661093e5760405162461bcd60e51b815260040161055a90611cf9565b6000828152600360205260409020600981015460ff166109945760405162461bcd60e51b8152602060048201526011602482015270131bd85b881b9bdd081858d8d95c1d1959607a1b604482015260640161055a565b806007015481600801546109a89190611d26565b42116109e95760405162461bcd60e51b815260206004820152601060248201526f131bd85b881b9bdd08195e1c1a5c995960821b604482015260640161055a565b600061271082600601548360040154610a029190611d3f565b610a0c9190611d56565b90506000818360040154610a209190611d26565b9050600061271060085483610a359190611d3f565b610a3f9190611d56565b9050803414610a905760405162461bcd60e51b815260206004820152601b60248201527f496e636f72726563742070726f746f636f6c206665652073656e740000000000604482015260640161055a565b8060096000828254610aa29190611d26565b909155505060098401805460ff191690556002840154600185015460038601546040516323b872dd60e01b81526001600160a01b03938416936323b872dd93610af49330939290911691600401611c00565b600060405180830381600087803b158015610b0e57600080fd5b505af1158015610b22573d6000803e3d6000fd5b505050507f09ee0d7b0b1598c76069a7aef742246a5889c7b18a88528c69ea7ddd016143de8685604051610b57929190611cb5565b60405180910390a1610b688661195e565b5050505050610b776001600055565b50565b610b82611a2a565b610b8a611934565b6009805460009182905560405190916001600160a01b0384169183156108fc0291849190818181858888f19350505050158015610bcb573d6000803e3d6000fd5b50604080516001600160a01b0384168152602081018390527fa087657e3d85162090ffd700fbfdf5070d816f63aa5da00063f6ffd369c8a6db910160405180910390a150610b776001600055565b610c21611a2a565b6001600160a01b038216600081815260056020908152604091829020805460ff19168515159081179091558251938452908301527f7fe996db267f9f17db8865f67d54879fc39a38a2a37afa158a9ea52357e794ac910160405180910390a15050565b610c8c611934565b60008281526003602052604090205482906001600160a01b0316610cc25760405162461bcd60e51b815260040161055a90611cf9565b600083815260036020526040902060090154839060ff1615610cf65760405162461bcd60e51b815260040161055a90611d78565b6000848152600360205260409020600681015484108015610d1b575080600501548411155b610d675760405162461bcd60e51b815260206004820152601960248201527f42696420696e746572657374207261746520696e76616c696400000000000000604482015260640161055a565b80600401543414610db25760405162461bcd60e51b8152602060048201526015602482015274125b98dbdc9c9958dd081b1bd85b88185b5bdd5b9d605a1b604482015260640161055a565b60018101546001600160a01b031615610e0e5760018101546000868152600460205260408082205490516001600160a01b039093169281156108fc0292818181858888f19350505050158015610e0c573d6000803e3d6000fd5b505b6001810180546001600160a01b031916331790556006810184905560008581526004602052604090819020349055517fe764baaf34b59b9c06a91d4c9be06e4168895472a16538801fa1256d8356060890610e6c9087908490611cb5565b60405180910390a1505050610e816001600055565b5050565b610e8d611a2a565b610e976000611a57565b565b610ea1611934565b60008181526003602052604090205481906001600160a01b0316610ed75760405162461bcd60e51b815260040161055a90611cf9565b600082815260036020526040902060090154829060ff1615610f0b5760405162461bcd60e51b815260040161055a90611d78565b600083815260036020526040902060018101546001600160a01b03163314610f805760405162461bcd60e51b815260206004820152602260248201527f4f6e6c7920746865206c656e6465722063616e2063616e63656c2074686520626044820152611a5960f21b606482015260840161055a565b6000848152600460205260408082208054908390556001840154915190926001600160a01b039092169183156108fc02918491818181858888f19350505050158015610fd0573d6000803e3d6000fd5b506001820180546001600160a01b0319169055600582015460068301556040517f3f74c0d4fffdd06ee27213c74a0ea5df0a69bd1da7260ee6ce5edc0733ec66ba9061101f9087908590611cb5565b60405180910390a150505050610b776001600055565b61103d611934565b60008181526003602052604090205481906001600160a01b03166110735760405162461bcd60e51b815260040161055a90611cf9565b60008281526003602052604090205482906001600160a01b031633146110ab5760405162461bcd60e51b815260040161055a90611da7565b6000838152600360205260409020600981015460ff166111055760405162461bcd60e51b8152602060048201526015602482015274131bd85b881b9bdd081858d8d95c1d1959081e595d605a1b604482015260640161055a565b806007015481600801546111199190611d26565b4211156111605760405162461bcd60e51b8152602060048201526015602482015274131bd85b88191d5c985d1a5bdb88195e1c1a5c9959605a1b604482015260640161055a565b600061116b856117fc565b90508034146111bc5760405162461bcd60e51b815260206004820152601a60248201527f496e636f72726563742072657061796d656e7420616d6f756e74000000000000604482015260640161055a565b6000612710836006015484600401546111d59190611d3f565b6111df9190611d56565b905060008184600401546111f39190611d26565b90506000612710600854836112089190611d3f565b6112129190611d56565b905060006112208284611dd2565b90506000612710600854856112359190611d3f565b61123f9190611d56565b905061124b8382611d26565b6009600082825461125c9190611d26565b909155505060098701805460ff191690556002870154875460038901546040516323b872dd60e01b81526001600160a01b03938416936323b872dd936112ab9330939290911691600401611c00565b600060405180830381600087803b1580156112c557600080fd5b505af11580156112d9573d6000803e3d6000fd5b50505060018801546040516001600160a01b03909116915083156108fc029084906000818181858888f19350505050158015611319573d6000803e3d6000fd5b507f4fe420b451ac5011d50b1235ef68ba00aeac1fb98e4572723d3ff73c5a77544d8a8860405161134b929190611cb5565b60405180910390a161135c8a61195e565b505050505050505050610b776001600055565b611377611934565b60008181526003602052604090205481906001600160a01b03166113ad5760405162461bcd60e51b815260040161055a90611cf9565b600082815260036020526040902060090154829060ff16156113e15760405162461bcd60e51b815260040161055a90611d78565b60008381526003602052604090205483906001600160a01b031633146114195760405162461bcd60e51b815260040161055a90611da7565b600084815260036020526040902060018101546001600160a01b03166114755760405162461bcd60e51b8152602060048201526011602482015270139bc81b195b99195c88189a59081e595d607a1b604482015260640161055a565b60098101805460ff191660011790554260088201556000858152600460205260408082208054908390558354915190926001600160a01b039092169183156108fc02918491818181858888f193505050501580156114d7573d6000803e3d6000fd5b507f1b7ba30a29ab5ed2d8ed3665b0bed8bf297e83883b7b000f267c5590511c488c8683604051611509929190611cb5565b60405180910390a15050505050610b776001600055565b611528611a2a565b6103e881111561156e5760405162461bcd60e51b815260206004820152601160248201527008ccaca40e4c2e8ca40e8dede40d0d2ced607b1b604482015260640161055a565b60088190556040518181527f9d2a5010795914ccbdd5a4cdee6a9aa2addac5e44443b519897523b67ddfe9fc9060200160405180910390a150565b600681815481106115b957600080fd5b600091825260209091200154905081565b6115d2611934565b60008181526003602052604090205481906001600160a01b03166116085760405162461bcd60e51b815260040161055a90611cf9565b600082815260036020526040902060090154829060ff161561163c5760405162461bcd60e51b815260040161055a90611d78565b60008381526003602052604090205483906001600160a01b031633146116745760405162461bcd60e51b815260040161055a90611da7565b600084815260036020526040902060018101546001600160a01b0316156116e8576000858152600460205260408082208054908390556001840154915190926001600160a01b039092169183156108fc02918491818181858888f193505050501580156116e5573d6000803e3d6000fd5b50505b6002810154815460038301546040516323b872dd60e01b81526001600160a01b03938416936323b872dd936117269330939290911691600401611c00565b600060405180830381600087803b15801561174057600080fd5b505af1158015611754573d6000803e3d6000fd5b5050506000868152600360208190526040822080546001600160a01b03199081168255600182018054821690556002820180549091169055908101829055600481018290556005810182905560068101829055600781018290556008810191909155600901805460ff19169055506117cb8561195e565b7f9962ecc38361b4460de4f01702f2a85a431a9c4cfde122c42a438ba50f9fdd92858260405161101f929190611cb5565b60008181526003602052604081205482906001600160a01b03166118325760405162461bcd60e51b815260040161055a90611cf9565b6000838152600360205260409020600981015460ff1661188c5760405162461bcd60e51b8152602060048201526015602482015274131bd85b881b9bdd081858d8d95c1d1959081e595d605a1b604482015260640161055a565b6000612710826006015483600401546118a59190611d3f565b6118af9190611d56565b905060008183600401546118c39190611d26565b90506000612710600854836118d89190611d3f565b6118e29190611d56565b90506118ee8183611d26565b979650505050505050565b611901611a2a565b6001600160a01b03811661192b57604051631e4fbdf760e01b81526000600482015260240161055a565b610b7781611a57565b60026000540361195757604051633ee5aeb560e01b815260040160405180910390fd5b6002600055565b6000818152600760205260408120805460ff191690555b600654811015610e8157816006828154811061199357611993611de5565b906000526020600020015403611a1857600680546119b390600190611dd2565b815481106119c3576119c3611de5565b9060005260206000200154600682815481106119e1576119e1611de5565b60009182526020909120015560068054806119fe576119fe611dfb565b600190038181906000526020600020016000905590555050565b80611a2281611ce0565b915050611975565b6001546001600160a01b03163314610e975760405163118cdaa760e01b815233600482015260240161055a565b600180546001600160a01b038381166001600160a01b0319831681179093556040519116919082907f8be0079c531659141344cd1fd0a4f28419497f9722a3daafe3b4186f6b6457e090600090a35050565b6001600160a01b0381168114610b7757600080fd5b600080600080600060a08688031215611ad657600080fd5b8535611ae181611aa9565b97602087013597506040870135966060810135965060800135945092505050565b6020808252825182820181905260009190848201906040850190845b81811015611b3a57835183529284019291840191600101611b1e565b50909695505050505050565b600060208284031215611b5857600080fd5b8135611b6381611aa9565b9392505050565b600060208284031215611b7c57600080fd5b5035919050565b60008060408385031215611b9657600080fd5b8235611ba181611aa9565b915060208301358015158114611bb657600080fd5b809150509250929050565b60008060408385031215611bd457600080fd5b50508035926020909101359150565b600060208284031215611bf557600080fd5b8151611b6381611aa9565b6001600160a01b039384168152919092166020820152604081019190915260600190565b611c4682611c3983546001600160a01b031690565b6001600160a01b03169052565b60018101546001600160a01b03908116602084015260028201541660408301526003810154606083015260048101546080830152600581015460a0830152600681015460c0830152600781015460e083015260088101546101008301526009015460ff16151561012090910152565b8281526101608101611b636020830184611c24565b634e487b7160e01b600052601160045260246000fd5b600060018201611cf257611cf2611cca565b5060010190565b602080825260139082015272131bd85b88191bd95cc81b9bdd08195e1a5cdd606a1b604082015260600190565b80820180821115611d3957611d39611cca565b92915050565b8082028115828204841417611d3957611d39611cca565b600082611d7357634e487b7160e01b600052601260045260246000fd5b500490565b602080825260159082015274131bd85b88185b1c9958591e481858d8d95c1d1959605a1b604082015260600190565b6020808252601190820152702737ba103637b0b7103137b93937bbb2b960791b604082015260600190565b81810381811115611d3957611d39611cca565b634e487b7160e01b600052603260045260246000fd5b634e487b7160e01b600052603160045260246000fdfea2646970667358221220464012be2cfe927cb4d2379590ec96b4c009d44a0a37e7274654eedc1a06775064736f6c63430008140033",
  "linkReferences": {},
  "deployedLinkReferences": {}
}