{
  "_format": "hh-sol-artifact-1",
  "contractName": "NFTLendAuction",
  "sourceName": "contracts/NFTLendAuction.sol",
  "abi": [
    {
      "inputs": [],
      "stateMutability": "nonpayable",
      "type": "constructor"
    },
    {
      "inputs": [],
      "name": "AccessControlBadConfirmation",
      "type": "error"
    },
    {
      "inputs": [
        {
          "internalType": "address",
          "name": "account",
          "type": "address"
        },
        {
          "internalType": "bytes32",
          "name": "neededRole",
          "type": "bytes32"
        }
      ],
      "name": "AccessControlUnauthorizedAccount",
      "type": "error"
    },
    {
      "inputs": [],
      "name": "ReentrancyGuardReentrantCall",
      "type": "error"
    },
    {
      "anonymous": false,
      "inputs": [
        {
          "indexed": true,
          "internalType": "address",
          "name": "nftAddress",
          "type": "address"
        },
        {
          "indexed": false,
          "internalType": "bool",
          "name": "allowed",
          "type": "bool"
        }
      ],
      "name": "AllowedNFTUpdated",
      "type": "event"
    },
    {
      "anonymous": false,
      "inputs": [
        {
          "indexed": true,
          "internalType": "uint256",
          "name": "loanId",
          "type": "uint256"
        },
        {
          "indexed": true,
          "internalType": "address",
          "name": "borrower",
          "type": "address"
        },
        {
          "indexed": true,
          "internalType": "address",
          "name": "lender",
          "type": "address"
        },
        {
          "indexed": false,
          "internalType": "uint256",
          "name": "startTime",
          "type": "uint256"
        }
      ],
      "name": "LoanAccepted",
      "type": "event"
    },
    {
      "anonymous": false,
      "inputs": [
        {
          "indexed": true,
          "internalType": "uint256",
          "name": "loanId",
          "type": "uint256"
        },
        {
          "indexed": true,
          "internalType": "address",
          "name": "lender",
          "type": "address"
        }
      ],
      "name": "LoanBidCancelled",
      "type": "event"
    },
    {
      "anonymous": false,
      "inputs": [
        {
          "indexed": true,
          "internalType": "uint256",
          "name": "loanId",
          "type": "uint256"
        },
        {
          "indexed": true,
          "internalType": "address",
          "name": "lender",
          "type": "address"
        },
        {
          "indexed": false,
          "internalType": "uint256",
          "name": "currentInterestRate",
          "type": "uint256"
        }
      ],
      "name": "LoanBidPlaced",
      "type": "event"
    },
    {
      "anonymous": false,
      "inputs": [
        {
          "indexed": true,
          "internalType": "uint256",
          "name": "loanId",
          "type": "uint256"
        },
        {
          "indexed": true,
          "internalType": "address",
          "name": "lender",
          "type": "address"
        }
      ],
      "name": "LoanDefaulted",
      "type": "event"
    },
    {
      "anonymous": false,
      "inputs": [
        {
          "indexed": true,
          "internalType": "uint256",
          "name": "loanId",
          "type": "uint256"
        },
        {
          "indexed": true,
          "internalType": "address",
          "name": "borrower",
          "type": "address"
        }
      ],
      "name": "LoanDelisted",
      "type": "event"
    },
    {
      "anonymous": false,
      "inputs": [
        {
          "indexed": true,
          "internalType": "uint256",
          "name": "loanId",
          "type": "uint256"
        },
        {
          "indexed": true,
          "internalType": "address",
          "name": "borrower",
          "type": "address"
        },
        {
          "indexed": false,
          "internalType": "address",
          "name": "nftAddress",
          "type": "address"
        },
        {
          "indexed": false,
          "internalType": "uint256",
          "name": "tokenId",
          "type": "uint256"
        },
        {
          "indexed": false,
          "internalType": "uint256",
          "name": "loanAmount",
          "type": "uint256"
        },
        {
          "indexed": false,
          "internalType": "uint256",
          "name": "maxInterestRate",
          "type": "uint256"
        },
        {
          "indexed": false,
          "internalType": "uint256",
          "name": "duration",
          "type": "uint256"
        },
        {
          "indexed": false,
          "internalType": "enum NFTLendAuction.LoanType",
          "name": "loanType",
          "type": "uint8"
        }
      ],
      "name": "LoanListed",
      "type": "event"
    },
    {
      "anonymous": false,
      "inputs": [
        {
          "indexed": true,
          "internalType": "uint256",
          "name": "loanId",
          "type": "uint256"
        },
        {
          "indexed": true,
          "internalType": "address",
          "name": "borrower",
          "type": "address"
        },
        {
          "indexed": false,
          "internalType": "uint256",
          "name": "repaymentAmount",
          "type": "uint256"
        }
      ],
      "name": "LoanRepaid",
      "type": "event"
    },
    {
      "anonymous": false,
      "inputs": [
        {
          "indexed": false,
          "internalType": "uint256",
          "name": "newFeeRate",
          "type": "uint256"
        }
      ],
      "name": "ProtocolFeeRateUpdated",
      "type": "event"
    },
    {
      "anonymous": false,
      "inputs": [
        {
          "indexed": false,
          "internalType": "address",
          "name": "to",
          "type": "address"
        },
        {
          "indexed": false,
          "internalType": "uint256",
          "name": "amount",
          "type": "uint256"
        }
      ],
      "name": "ProtocolFeesWithdrawn",
      "type": "event"
    },
    {
      "anonymous": false,
      "inputs": [
        {
          "indexed": true,
          "internalType": "bytes32",
          "name": "role",
          "type": "bytes32"
        },
        {
          "indexed": true,
          "internalType": "bytes32",
          "name": "previousAdminRole",
          "type": "bytes32"
        },
        {
          "indexed": true,
          "internalType": "bytes32",
          "name": "newAdminRole",
          "type": "bytes32"
        }
      ],
      "name": "RoleAdminChanged",
      "type": "event"
    },
    {
      "anonymous": false,
      "inputs": [
        {
          "indexed": true,
          "internalType": "bytes32",
          "name": "role",
          "type": "bytes32"
        },
        {
          "indexed": true,
          "internalType": "address",
          "name": "account",
          "type": "address"
        },
        {
          "indexed": true,
          "internalType": "address",
          "name": "sender",
          "type": "address"
        }
      ],
      "name": "RoleGranted",
      "type": "event"
    },
    {
      "anonymous": false,
      "inputs": [
        {
          "indexed": true,
          "internalType": "bytes32",
          "name": "role",
          "type": "bytes32"
        },
        {
          "indexed": true,
          "internalType": "address",
          "name": "account",
          "type": "address"
        },
        {
          "indexed": true,
          "internalType": "address",
          "name": "sender",
          "type": "address"
        }
      ],
      "name": "RoleRevoked",
      "type": "event"
    },
    {
      "inputs": [],
      "name": "DEFAULT_ADMIN_ROLE",
      "outputs": [
        {
          "internalType": "bytes32",
          "name": "",
          "type": "bytes32"
        }
      ],
      "stateMutability": "view",
      "type": "function"
    },
    {
      "inputs": [],
      "name": "MANAGER_ROLE",
      "outputs": [
        {
          "internalType": "bytes32",
          "name": "",
          "type": "bytes32"
        }
      ],
      "stateMutability": "view",
      "type": "function"
    },
    {
      "inputs": [],
      "name": "OWNER_ROLE",
      "outputs": [
        {
          "internalType": "bytes32",
          "name": "",
          "type": "bytes32"
        }
      ],
      "stateMutability": "view",
      "type": "function"
    },
    {
      "inputs": [
        {
          "internalType": "uint256",
          "name": "loanId",
          "type": "uint256"
        }
      ],
      "name": "acceptLoan",
      "outputs": [],
      "stateMutability": "nonpayable",
      "type": "function"
    },
    {
      "inputs": [
        {
          "internalType": "uint256",
          "name": "",
          "type": "uint256"
        }
      ],
      "name": "activeLoanIds",
      "outputs": [
        {
          "internalType": "uint256",
          "name": "",
          "type": "uint256"
        }
      ],
      "stateMutability": "view",
      "type": "function"
    },
    {
      "inputs": [
        {
          "internalType": "uint256",
          "name": "",
          "type": "uint256"
        }
      ],
      "name": "activeLoans",
      "outputs": [
        {
          "internalType": "bool",
          "name": "",
          "type": "bool"
        }
      ],
      "stateMutability": "view",
      "type": "function"
    },
    {
      "inputs": [
        {
          "internalType": "address",
          "name": "",
          "type": "address"
        }
      ],
      "name": "allowedNFTs",
      "outputs": [
        {
          "internalType": "bool",
          "name": "",
          "type": "bool"
        }
      ],
      "stateMutability": "view",
      "type": "function"
    },
    {
      "inputs": [
        {
          "internalType": "uint256",
          "name": "loanId",
          "type": "uint256"
        }
      ],
      "name": "cancelBid",
      "outputs": [],
      "stateMutability": "nonpayable",
      "type": "function"
    },
    {
      "inputs": [
        {
          "internalType": "uint256",
          "name": "loanId",
          "type": "uint256"
        }
      ],
      "name": "claimDefaultedLoan",
      "outputs": [],
      "stateMutability": "payable",
      "type": "function"
    },
    {
      "inputs": [
        {
          "internalType": "uint256",
          "name": "loanId",
          "type": "uint256"
        }
      ],
      "name": "delistLoan",
      "outputs": [],
      "stateMutability": "nonpayable",
      "type": "function"
    },
    {
      "inputs": [
        {
          "internalType": "uint256",
          "name": "",
          "type": "uint256"
        }
      ],
      "name": "escrowedFunds",
      "outputs": [
        {
          "internalType": "uint256",
          "name": "",
          "type": "uint256"
        }
      ],
      "stateMutability": "view",
      "type": "function"
    },
    {
      "inputs": [],
      "name": "getActiveLoans",
      "outputs": [
        {
          "internalType": "uint256[]",
          "name": "",
          "type": "uint256[]"
        }
      ],
      "stateMutability": "view",
      "type": "function"
    },
    {
      "inputs": [
        {
          "internalType": "bytes32",
          "name": "role",
          "type": "bytes32"
        }
      ],
      "name": "getRoleAdmin",
      "outputs": [
        {
          "internalType": "bytes32",
          "name": "",
          "type": "bytes32"
        }
      ],
      "stateMutability": "view",
      "type": "function"
    },
    {
      "inputs": [
        {
          "internalType": "uint256",
          "name": "loanId",
          "type": "uint256"
        }
      ],
      "name": "getTotalRepayment",
      "outputs": [
        {
          "internalType": "uint256",
          "name": "",
          "type": "uint256"
        }
      ],
      "stateMutability": "view",
      "type": "function"
    },
    {
      "inputs": [
        {
          "internalType": "address",
          "name": "account",
          "type": "address"
        }
      ],
      "name": "grantManagerRole",
      "outputs": [],
      "stateMutability": "nonpayable",
      "type": "function"
    },
    {
      "inputs": [
        {
          "internalType": "bytes32",
          "name": "role",
          "type": "bytes32"
        },
        {
          "internalType": "address",
          "name": "account",
          "type": "address"
        }
      ],
      "name": "grantRole",
      "outputs": [],
      "stateMutability": "nonpayable",
      "type": "function"
    },
    {
      "inputs": [
        {
          "internalType": "bytes32",
          "name": "role",
          "type": "bytes32"
        },
        {
          "internalType": "address",
          "name": "account",
          "type": "address"
        }
      ],
      "name": "hasRole",
      "outputs": [
        {
          "internalType": "bool",
          "name": "",
          "type": "bool"
        }
      ],
      "stateMutability": "view",
      "type": "function"
    },
    {
      "inputs": [
        {
          "internalType": "address",
          "name": "nftAddress",
          "type": "address"
        },
        {
          "internalType": "uint256",
          "name": "tokenId",
          "type": "uint256"
        },
        {
          "internalType": "uint256",
          "name": "loanAmount",
          "type": "uint256"
        },
        {
          "internalType": "uint256",
          "name": "maxInterestRate",
          "type": "uint256"
        },
        {
          "internalType": "uint256",
          "name": "duration",
          "type": "uint256"
        },
        {
          "internalType": "enum NFTLendAuction.LoanType",
          "name": "loanType",
          "type": "uint8"
        }
      ],
      "name": "listLoan",
      "outputs": [],
      "stateMutability": "nonpayable",
      "type": "function"
    },
    {
      "inputs": [],
      "name": "loanCounter",
      "outputs": [
        {
          "internalType": "uint256",
          "name": "",
          "type": "uint256"
        }
      ],
      "stateMutability": "view",
      "type": "function"
    },
    {
      "inputs": [
        {
          "internalType": "uint256",
          "name": "",
          "type": "uint256"
        }
      ],
      "name": "loans",
      "outputs": [
        {
          "internalType": "address",
          "name": "borrower",
          "type": "address"
        },
        {
          "internalType": "address",
          "name": "lender",
          "type": "address"
        },
        {
          "internalType": "address",
          "name": "nftAddress",
          "type": "address"
        },
        {
          "internalType": "uint256",
          "name": "tokenId",
          "type": "uint256"
        },
        {
          "internalType": "uint256",
          "name": "loanAmount",
          "type": "uint256"
        },
        {
          "internalType": "uint256",
          "name": "maxInterestRate",
          "type": "uint256"
        },
        {
          "internalType": "uint256",
          "name": "currentInterestRate",
          "type": "uint256"
        },
        {
          "internalType": "uint256",
          "name": "duration",
          "type": "uint256"
        },
        {
          "internalType": "uint256",
          "name": "startTime",
          "type": "uint256"
        },
        {
          "internalType": "enum NFTLendAuction.LoanType",
          "name": "loanType",
          "type": "uint8"
        },
        {
          "internalType": "bool",
          "name": "isAccepted",
          "type": "bool"
        }
      ],
      "stateMutability": "view",
      "type": "function"
    },
    {
      "inputs": [],
      "name": "maxActiveLoans",
      "outputs": [
        {
          "internalType": "uint256",
          "name": "",
          "type": "uint256"
        }
      ],
      "stateMutability": "view",
      "type": "function"
    },
    {
      "inputs": [
        {
          "internalType": "uint256",
          "name": "loanId",
          "type": "uint256"
        },
        {
          "internalType": "uint256",
          "name": "interestRate",
          "type": "uint256"
        }
      ],
      "name": "placeBid",
      "outputs": [],
      "stateMutability": "payable",
      "type": "function"
    },
    {
      "inputs": [],
      "name": "protocolFeeBalance",
      "outputs": [
        {
          "internalType": "uint256",
          "name": "",
          "type": "uint256"
        }
      ],
      "stateMutability": "view",
      "type": "function"
    },
    {
      "inputs": [],
      "name": "protocolFeeRate",
      "outputs": [
        {
          "internalType": "uint256",
          "name": "",
          "type": "uint256"
        }
      ],
      "stateMutability": "view",
      "type": "function"
    },
    {
      "inputs": [
        {
          "internalType": "bytes32",
          "name": "role",
          "type": "bytes32"
        },
        {
          "internalType": "address",
          "name": "callerConfirmation",
          "type": "address"
        }
      ],
      "name": "renounceRole",
      "outputs": [],
      "stateMutability": "nonpayable",
      "type": "function"
    },
    {
      "inputs": [
        {
          "internalType": "uint256",
          "name": "loanId",
          "type": "uint256"
        }
      ],
      "name": "repayLoan",
      "outputs": [],
      "stateMutability": "payable",
      "type": "function"
    },
    {
      "inputs": [
        {
          "internalType": "address",
          "name": "account",
          "type": "address"
        }
      ],
      "name": "revokeManagerRole",
      "outputs": [],
      "stateMutability": "nonpayable",
      "type": "function"
    },
    {
      "inputs": [
        {
          "internalType": "bytes32",
          "name": "role",
          "type": "bytes32"
        },
        {
          "internalType": "address",
          "name": "account",
          "type": "address"
        }
      ],
      "name": "revokeRole",
      "outputs": [],
      "stateMutability": "nonpayable",
      "type": "function"
    },
    {
      "inputs": [
        {
          "internalType": "uint256",
          "name": "newMax",
          "type": "uint256"
        }
      ],
      "name": "setMaxActiveLoans",
      "outputs": [],
      "stateMutability": "nonpayable",
      "type": "function"
    },
    {
      "inputs": [
        {
          "internalType": "uint256",
          "name": "newFeeRate",
          "type": "uint256"
        }
      ],
      "name": "setProtocolFeeRate",
      "outputs": [],
      "stateMutability": "nonpayable",
      "type": "function"
    },
    {
      "inputs": [
        {
          "internalType": "bytes4",
          "name": "interfaceId",
          "type": "bytes4"
        }
      ],
      "name": "supportsInterface",
      "outputs": [
        {
          "internalType": "bool",
          "name": "",
          "type": "bool"
        }
      ],
      "stateMutability": "view",
      "type": "function"
    },
    {
      "inputs": [
        {
          "internalType": "address",
          "name": "nftAddress",
          "type": "address"
        },
        {
          "internalType": "bool",
          "name": "allowed",
          "type": "bool"
        }
      ],
      "name": "updateAllowedNFT",
      "outputs": [],
      "stateMutability": "nonpayable",
      "type": "function"
    },
    {
      "inputs": [
        {
          "internalType": "address payable",
          "name": "to",
          "type": "address"
        }
      ],
      "name": "withdrawEther",
      "outputs": [],
      "stateMutability": "nonpayable",
      "type": "function"
    },
    {
      "inputs": [
        {
          "internalType": "address payable",
          "name": "to",
          "type": "address"
        }
      ],
      "name": "withdrawProtocolFees",
      "outputs": [],
      "stateMutability": "nonpayable",
      "type": "function"
    }
  ],
  "bytecode": "0x60806040526103e860065560c86009553480156200001c57600080fd5b506001600090815562000030903362000091565b506200005d7fb19546dff01e856fb3f010c267a7b1c60363cf8a4664e21cc89c26224620214e3362000091565b506200008a7f241ecf16d79d0f8dbfb92cbc07fe17840425976cf0667f022fe9877caa831b083362000091565b5062000128565b60008281526001602090815260408083206001600160a01b038516845290915281205460ff166200011e5760008381526001602081815260408084206001600160a01b0387168086529252808420805460ff19169093179092559051339286917f2f8788117e7eff1d82e926ec794901d17c78024a50270940304540a733656f0d9190a450600162000122565b5060005b92915050565b6128ac80620001386000396000f3fe6080604052600436106101f95760003560e01c80639703ef351161010d578063be4dc94f116100a0578063dfd79bc91161006f578063dfd79bc9146105a9578063e1ec3c68146105c9578063e505d0c514610669578063e58378bb14610689578063ec87621c146106ab57600080fd5b8063be4dc94f14610533578063c9a759cb14610553578063d547741f14610569578063deb298c31461058957600080fd5b8063af933b57116100dc578063af933b57146104a6578063b13aa2d6146104c6578063b489e147146104e6578063b93186ba1461051357600080fd5b80639703ef351461043e578063a217fddf1461045e578063ab7b1c8914610473578063adfbe22f1461048657600080fd5b80632d80caa51161019057806336568abe1161015f57806336568abe146103a557806347126f62146103c557806357c90de5146103f557806358f858801461040857806391d148541461041e57600080fd5b80632d80caa51461032f5780632f2ff15d1461034f5780633360874c1461036f57806334d9289e1461038f57600080fd5b80631e837ef3116101cc5780631e837ef3146102a9578063248a9ca3146102cb57806326e885e3146102fc57806327f8dce31461031c57600080fd5b806301ffc9a7146101fe5780630a22d68c14610233578063121ed2a71461025757806312381ec214610279575b600080fd5b34801561020a57600080fd5b5061021e61021936600461241e565b6106cd565b60405190151581526020015b60405180910390f35b34801561023f57600080fd5b50610249600a5481565b60405190815260200161022a565b34801561026357600080fd5b5061026c610704565b60405161022a919061244f565b34801561028557600080fd5b5061021e6102943660046124a8565b60056020526000908152604090205460ff1681565b3480156102b557600080fd5b506102c96102c43660046124c5565b61075c565b005b3480156102d757600080fd5b506102496102e63660046124c5565b6000908152600160208190526040909120015490565b34801561030857600080fd5b506102c96103173660046124a8565b61077a565b6102c961032a3660046124c5565b6107a1565b34801561033b57600080fd5b506102c961034a3660046124a8565b610a00565b34801561035b57600080fd5b506102c961036a3660046124de565b610b60565b34801561037b57600080fd5b506102c961038a36600461250e565b610b8c565b34801561039b57600080fd5b5061024960025481565b3480156103b157600080fd5b506102c96103c03660046124de565b610c04565b3480156103d157600080fd5b5061021e6103e03660046124c5565b60086020526000908152604090205460ff1681565b6102c9610403366004612541565b610c3c565b34801561041457600080fd5b5061024960095481565b34801561042a57600080fd5b5061021e6104393660046124de565b610e43565b34801561044a57600080fd5b506102c96104593660046124c5565b610e6e565b34801561046a57600080fd5b50610249600081565b6102c96104813660046124c5565b610ff8565b34801561049257600080fd5b506102c96104a13660046124c5565b61136b565b3480156104b257600080fd5b506102c96104c13660046124a8565b611584565b3480156104d257600080fd5b506102c96104e13660046124c5565b6117ae565b3480156104f257600080fd5b506102496105013660046124c5565b60046020526000908152604090205481565b34801561051f57600080fd5b5061024961052e3660046124c5565b611848565b34801561053f57600080fd5b506102c961054e3660046124a8565b611869565b34801561055f57600080fd5b5061024960065481565b34801561057557600080fd5b506102c96105843660046124de565b611888565b34801561059557600080fd5b506102c96105a43660046124c5565b6118ae565b3480156105b557600080fd5b506102c96105c4366004612563565b611afc565b3480156105d557600080fd5b506106526105e43660046124c5565b600360208190526000918252604090912080546001820154600283015493830154600484015460058501546006860154600787015460088801546009909801546001600160a01b03978816999688169897909616969495939492939192909160ff808216916101009004168b565b60405161022a9b9a999897969594939291906125fd565b34801561067557600080fd5b506102496106843660046124c5565b612075565b34801561069557600080fd5b5061024960008051602061283783398151915281565b3480156106b757600080fd5b5061024960008051602061285783398151915281565b60006001600160e01b03198216637965db0b60e01b14806106fe57506301ffc9a760e01b6001600160e01b03198316145b92915050565b6060600780548060200260200160405190810160405280929190818152602001828054801561075257602002820191906000526020600020905b81548152602001906001019080831161073e575b5050505050905090565b60008051602061283783398151915261077481612209565b50600655565b600061078581612209565b61079d60008051602061285783398151915283610b60565b5050565b6107a9612213565b60008181526003602052604090205481906001600160a01b03166107e85760405162461bcd60e51b81526004016107df90612670565b60405180910390fd5b60008281526003602052604090206009810154610100900460ff166108435760405162461bcd60e51b8152602060048201526011602482015270131bd85b881b9bdd081858d8d95c1d1959607a1b60448201526064016107df565b8060070154816008015461085791906126b3565b42116108985760405162461bcd60e51b815260206004820152601060248201526f131bd85b881b9bdd08195e1c1a5c995960821b60448201526064016107df565b60006108a384612075565b90506000612710600954836108b891906126c6565b6108c291906126dd565b90508034146109135760405162461bcd60e51b815260206004820152601b60248201527f496e636f72726563742070726f746f636f6c206665652073656e74000000000060448201526064016107df565b80600a600082825461092591906126b3565b909155505060098301805461ff0019169055600283015460018401546003850154604051632142170760e11b81526001600160a01b03938416936342842e0e9361097893309392909116916004016126ff565b600060405180830381600087803b15801561099257600080fd5b505af11580156109a6573d6000803e3d6000fd5b50505060018401546040516001600160a01b03909116915086907f13b88e6866f0156d706fecfa22b678de5fc2b749c1d2307f6f47eb541385f1ec90600090a36109ef8561223d565b505050506109fd6001600055565b50565b610a08612213565b600080516020612837833981519152610a2081612209565b6001600160a01b038216610a725760405162461bcd60e51b8152602060048201526019602482015278496e76616c696420726563697069656e74206164647265737360381b60448201526064016107df565b600a80546000918290556040519091906001600160a01b0385169083908381818185875af1925050503d8060008114610ac7576040519150601f19603f3d011682016040523d82523d6000602084013e610acc565b606091505b5050905080610b115760405162461bcd60e51b815260206004820152601160248201527015da5d1a191c985dd85b0819985a5b1959607a1b60448201526064016107df565b604080516001600160a01b0386168152602081018490527fa087657e3d85162090ffd700fbfdf5070d816f63aa5da00063f6ffd369c8a6db910160405180910390a15050506109fd6001600055565b60008281526001602081905260409091200154610b7c81612209565b610b8683836122ff565b50505050565b600080516020612857833981519152610ba481612209565b6001600160a01b038316600081815260056020908152604091829020805460ff191686151590811790915591519182527f7fe996db267f9f17db8865f67d54879fc39a38a2a37afa158a9ea52357e794ac910160405180910390a2505050565b6001600160a01b0381163314610c2d5760405163334bd91960e11b815260040160405180910390fd5b610c378282612378565b505050565b610c44612213565b60008281526003602052604090205482906001600160a01b0316610c7a5760405162461bcd60e51b81526004016107df90612670565b6000838152600360205260409020600901548390610100900460ff1615610cb35760405162461bcd60e51b81526004016107df90612723565b6000848152600360205260409020600681015484108015610cd8575080600501548411155b610d245760405162461bcd60e51b815260206004820152601960248201527f42696420696e746572657374207261746520696e76616c69640000000000000060448201526064016107df565b80600401543414610d6f5760405162461bcd60e51b8152602060048201526015602482015274125b98dbdc9c9958dd081b1bd85b88185b5bdd5b9d605a1b60448201526064016107df565b60018101546001600160a01b031615610dcb5760018101546000868152600460205260408082205490516001600160a01b039093169281156108fc0292818181858888f19350505050158015610dc9573d6000803e3d6000fd5b505b6001810180546001600160a01b0319163390811790915560068201859055600086815260046020526040908190203490555186907fd1b9c752eb85783f53e7669e993e44d05db062782a8dcd72a7757746cc981f1d90610e2e9088815260200190565b60405180910390a350505061079d6001600055565b60009182526001602090815260408084206001600160a01b0393909316845291905290205460ff1690565b610e76612213565b60008181526003602052604090205481906001600160a01b0316610eac5760405162461bcd60e51b81526004016107df90612670565b6000828152600360205260409020600901548290610100900460ff1615610ee55760405162461bcd60e51b81526004016107df90612723565b60008381526003602052604090206001015483906001600160a01b03163314610f425760405162461bcd60e51b815260206004820152600f60248201526e2737ba103637b0b7103632b73232b960891b60448201526064016107df565b6000848152600360209081526040808320600490925280832080549084905560018301549151929390926001600160a01b039092169183156108fc0291849190818181858888f19350505050158015610f9f573d6000803e3d6000fd5b506001820180546001600160a01b03191690556005820154600683015560405160009087907f5677b1e812c0884dd700a8657ca2619da856a4940cb378aa593b217849a21a8a908390a350505050506109fd6001600055565b611000612213565b60008181526003602052604090205481906001600160a01b03166110365760405162461bcd60e51b81526004016107df90612670565b60008281526003602052604090205482906001600160a01b0316331461106e5760405162461bcd60e51b81526004016107df90612752565b60008381526003602052604090206009810154610100900460ff166110cd5760405162461bcd60e51b8152602060048201526015602482015274131bd85b881b9bdd081858d8d95c1d1959081e595d605a1b60448201526064016107df565b80600801544210156111215760405162461bcd60e51b815260206004820181905260248201527f52657061796d656e74206265666f7265206c6f616e2073746172742074696d6560448201526064016107df565b8060070154816008015461113591906126b3565b42111561117c5760405162461bcd60e51b8152602060048201526015602482015274131bd85b88191d5c985d1a5bdb88195e1c1a5c9959605a1b60448201526064016107df565b600061118785612075565b905060006127106009548361119c91906126c6565b6111a691906126dd565b90506000612710600954846111bb91906126c6565b6111c591906126dd565b905060006111d383856126b3565b9050803410156112255760405162461bcd60e51b815260206004820152601a60248201527f496e636f72726563742072657061796d656e7420616d6f756e7400000000000060448201526064016107df565b6000611231838661277d565b905061123d84846126b3565b600a600082825461124e91906126b3565b909155505060098601805461ff0019169055600286015486546003880154604051632142170760e11b81526001600160a01b03938416936342842e0e9361129e93309392909116916004016126ff565b600060405180830381600087803b1580156112b857600080fd5b505af11580156112cc573d6000803e3d6000fd5b50505060018701546040516001600160a01b03909116915082156108fc029083906000818181858888f1935050505015801561130c573d6000803e3d6000fd5b5085546040513481526001600160a01b03909116908a907f512d3e65b3e58c2187bb1872aa435dba5bd09c1c03823ba56ab70aac411e4a219060200160405180910390a36113598961223d565b50505050505050506109fd6001600055565b611373612213565b60008181526003602052604090205481906001600160a01b03166113a95760405162461bcd60e51b81526004016107df90612670565b6000828152600360205260409020600901548290610100900460ff16156113e25760405162461bcd60e51b81526004016107df90612723565b60008381526003602052604090205483906001600160a01b0316331461141a5760405162461bcd60e51b81526004016107df90612752565b600084815260036020526040902060018101546001600160a01b03166114765760405162461bcd60e51b8152602060048201526011602482015270139bc81b195b99195c88189a59081e595d607a1b60448201526064016107df565b6008810154156114bf5760405162461bcd60e51b8152602060048201526014602482015273131bd85b88185b1c9958591e481cdd185c9d195960621b60448201526064016107df565b42600882015560098101805461ff0019166101001790556000858152600460205260408082208054908390558354915190926001600160a01b039092169183156108fc02918491818181858888f19350505050158015611523573d6000803e3d6000fd5b506001820154825460088401546040519081526001600160a01b03928316929091169088907f4c979ff2766f744d4178287ddbc4067d12a0685401762a1e243f108cfc91f46c9060200160405180910390a450505050506109fd6001600055565b61158c612213565b6000805160206128378339815191526115a481612209565b6001600160a01b0382166115f65760405162461bcd60e51b8152602060048201526019602482015278496e76616c696420726563697069656e74206164647265737360381b60448201526064016107df565b476000805b60075481101561164b57600460006007838154811061161c5761161c612790565b90600052602060002001548152602001908152602001600020548261164191906126b3565b91506001016115fb565b50600a5460009061165c838561277d565b611666919061277d565b9050600081116116c25760405162461bcd60e51b815260206004820152602160248201527f4e6f2066756e647320617661696c61626c6520666f72207769746864726177616044820152601b60fa1b60648201526084016107df565b6000856001600160a01b03168260405160006040518083038185875af1925050503d806000811461170f576040519150601f19603f3d011682016040523d82523d6000602084013e611714565b606091505b505090508061175d5760405162461bcd60e51b8152602060048201526015602482015274115d1a195c881d1c985b9cd9995c8819985a5b1959605a1b60448201526064016107df565b604080516001600160a01b0388168152602081018490527fa087657e3d85162090ffd700fbfdf5070d816f63aa5da00063f6ffd369c8a6db910160405180910390a150505050506109fd6001600055565b6000805160206128378339815191526117c681612209565b6103e882111561180c5760405162461bcd60e51b815260206004820152601160248201527008ccaca40e4c2e8ca40e8dede40d0d2ced607b1b60448201526064016107df565b60098290556040518281527f9d2a5010795914ccbdd5a4cdee6a9aa2addac5e44443b519897523b67ddfe9fc9060200160405180910390a15050565b6007818154811061185857600080fd5b600091825260209091200154905081565b600061187481612209565b61079d600080516020612857833981519152835b600082815260016020819052604090912001546118a481612209565b610b868383612378565b6118b6612213565b60008181526003602052604090205481906001600160a01b03166118ec5760405162461bcd60e51b81526004016107df90612670565b6000828152600360205260409020600901548290610100900460ff16156119255760405162461bcd60e51b81526004016107df90612723565b60008381526003602052604090205483906001600160a01b0316331461195d5760405162461bcd60e51b81526004016107df90612752565b600084815260036020526040902060018101546001600160a01b0316156119d1576000858152600460205260408082208054908390556001840154915190926001600160a01b039092169183156108fc02918491818181858888f193505050501580156119ce573d6000803e3d6000fd5b50505b600281015481546003830154604051632142170760e11b81526001600160a01b03938416936342842e0e93611a0f93309392909116916004016126ff565b600060405180830381600087803b158015611a2957600080fd5b505af1158015611a3d573d6000803e3d6000fd5b5050506000868152600360208190526040822080546001600160a01b03199081168255600182018054821690556002820180549091169055908101829055600481018290556005810182905560068101829055600781018290556008810191909155600901805461ffff1916905550611ab58561223d565b80546040516001600160a01b039091169086907f94140863d1b77b2db4c5904c78e4343ab9c2a51a27e3e6beef9f21109162d93e90600090a3505050506109fd6001600055565b611b04612213565b6001600160a01b038616600090815260056020526040902054869060ff16611b6e5760405162461bcd60e51b815260206004820152601860248201527f4e465420636f6e7472616374206e6f7420616c6c6f776564000000000000000060448201526064016107df565b6040516331a9108f60e11b8152600481018790528790879033906001600160a01b03841690636352211e90602401602060405180830381865afa158015611bb9573d6000803e3d6000fd5b505050506040513d601f19601f82011682018060405250810190611bdd91906127a6565b6001600160a01b031614611c235760405162461bcd60e51b815260206004820152600d60248201526c2737ba1027232a1037bbb732b960991b60448201526064016107df565b60065460075410611c765760405162461bcd60e51b815260206004820152601960248201527f416374697665206c6f616e206c696d697420726561636865640000000000000060448201526064016107df565b60008711611cd45760405162461bcd60e51b815260206004820152602560248201527f4c6f616e20616d6f756e74206d7573742062652067726561746572207468616e604482015264207a65726f60d81b60648201526084016107df565b60008611611d345760405162461bcd60e51b815260206004820152602760248201527f496e7465726573742072617465206d7573742062652067726561746572207468604482015266616e207a65726f60c81b60648201526084016107df565b60008511611d945760405162461bcd60e51b815260206004820152602760248201527f4c6f616e206475726174696f6e206d7573742062652067726561746572207468604482015266616e207a65726f60c81b60648201526084016107df565b6001846001811115611da857611da86125c5565b1115611dea5760405162461bcd60e51b8152602060048201526011602482015270496e76616c6964206c6f616e207479706560781b60448201526064016107df565b6040516323b872dd60e01b81526001600160a01b038a16906323b872dd90611e1a90339030908d906004016126ff565b600060405180830381600087803b158015611e3457600080fd5b505af1158015611e48573d6000803e3d6000fd5b50505050604051806101600160405280336001600160a01b0316815260200160006001600160a01b031681526020018a6001600160a01b0316815260200189815260200188815260200187815260200187815260200186815260200160008152602001856001811115611ebd57611ebd6125c5565b8152600060209182018190526002805482526003808452604092839020855181546001600160a01b03199081166001600160a01b0392831617835595870151600180840180548916928416929092179091559487015193820180549096169316929092179093556060840151928101929092556080830151600483015560a0830151600583015560c0830151600683015560e0830151600783015561010083015160088301556101208301516009830180549192909160ff1916908381811115611f8957611f896125c5565b02179055506101409190910151600990910180549115156101000261ff001990921691909117905560028054600090815260086020526040808220805460ff1916600190811790915592546007805494850181559092527fa66cc928b5edb82af9bd49922954155ab7b0942694bea4ce44661d9a8736c68890920181905590513391907fa9973745a882bc65d3595589890fb1d6ad321250d5785e606c9c41eb61c55fdc90612043908d908d908d908d908d908d906127c3565b60405180910390a36002805490600061205b83612807565b919050555050505061206d6001600055565b505050505050565b60008181526003602052604081205482906001600160a01b03166120ab5760405162461bcd60e51b81526004016107df90612670565b60008381526003602052604081209080600983015460ff1660018111156120d4576120d46125c5565b0361210157612710826006015483600401546120f091906126c6565b6120fa91906126dd565b90506121f0565b6001600983015460ff16600181111561211c5761211c6125c5565b036121f05760006127108360060154846004015461213a91906126c6565b61214491906126dd565b6009840154909150610100900460ff16156121ab5760006201518084600801544261216f919061277d565b61217991906126dd565b905061016d6000821161218d57600161218f565b815b61219990846126c6565b6121a391906126dd565b9250506121ee565b60006201518084600701546121c091906126dd565b905061016d600082116121d45760016121d6565b815b6121e090846126c6565b6121ea91906126dd565b9250505b505b80826004015461220091906126b3565b95945050505050565b6109fd81336123e5565b60026000540361223657604051633ee5aeb560e01b815260040160405180910390fd5b6002600055565b6000818152600860205260408120805460ff191690555b60075481101561079d57816007828154811061227257612272612790565b9060005260206000200154036122f757600780546122929060019061277d565b815481106122a2576122a2612790565b9060005260206000200154600782815481106122c0576122c0612790565b60009182526020909120015560078054806122dd576122dd612820565b600190038181906000526020600020016000905590555050565b600101612254565b600061230b8383610e43565b6123705760008381526001602081815260408084206001600160a01b0387168086529252808420805460ff19169093179092559051339286917f2f8788117e7eff1d82e926ec794901d17c78024a50270940304540a733656f0d9190a45060016106fe565b5060006106fe565b60006123848383610e43565b156123705760008381526001602090815260408083206001600160a01b0386168085529252808320805460ff1916905551339286917ff6391f5c32d9c69d2a47ea670b442974b53935d1edc7fd64eb21e047a839171b9190a45060016106fe565b6123ef8282610e43565b61079d5760405163e2517d3f60e01b81526001600160a01b0382166004820152602481018390526044016107df565b60006020828403121561243057600080fd5b81356001600160e01b03198116811461244857600080fd5b9392505050565b6020808252825182820181905260009190848201906040850190845b818110156124875783518352928401929184019160010161246b565b50909695505050505050565b6001600160a01b03811681146109fd57600080fd5b6000602082840312156124ba57600080fd5b813561244881612493565b6000602082840312156124d757600080fd5b5035919050565b600080604083850312156124f157600080fd5b82359150602083013561250381612493565b809150509250929050565b6000806040838503121561252157600080fd5b823561252c81612493565b91506020830135801515811461250357600080fd5b6000806040838503121561255457600080fd5b50508035926020909101359150565b60008060008060008060c0878903121561257c57600080fd5b863561258781612493565b95506020870135945060408701359350606087013592506080870135915060a0870135600281106125b757600080fd5b809150509295509295509295565b634e487b7160e01b600052602160045260246000fd5b600281106125f957634e487b7160e01b600052602160045260246000fd5b9052565b6001600160a01b038c811682528b811660208301528a166040820152606081018990526080810188905260a0810187905260c0810186905260e08101859052610100810184905261016081016126576101208301856125db565b8215156101408301529c9b505050505050505050505050565b602080825260139082015272131bd85b88191bd95cc81b9bdd08195e1a5cdd606a1b604082015260600190565b634e487b7160e01b600052601160045260246000fd5b808201808211156106fe576106fe61269d565b80820281158282048414176106fe576106fe61269d565b6000826126fa57634e487b7160e01b600052601260045260246000fd5b500490565b6001600160a01b039384168152919092166020820152604081019190915260600190565b602080825260159082015274131bd85b88185b1c9958591e481858d8d95c1d1959605a1b604082015260600190565b6020808252601190820152702737ba103637b0b7103137b93937bbb2b960791b604082015260600190565b818103818111156106fe576106fe61269d565b634e487b7160e01b600052603260045260246000fd5b6000602082840312156127b857600080fd5b815161244881612493565b6001600160a01b03871681526020810186905260408101859052606081018490526080810183905260c081016127fc60a08301846125db565b979650505050505050565b6000600182016128195761281961269d565b5060010190565b634e487b7160e01b600052603160045260246000fdfeb19546dff01e856fb3f010c267a7b1c60363cf8a4664e21cc89c26224620214e241ecf16d79d0f8dbfb92cbc07fe17840425976cf0667f022fe9877caa831b08a264697066735822122070393f8ed4e7600178bf2c5e5ec8f06b3205716bc09fe9d25b3d3b95412c773664736f6c63430008170033",
  "linkReferences": {},
  "deployedLinkReferences": {}
}